:100000000C94FE000C9424010C9424010C94240103
:100010000C9424010C9424010C9424010C942401CC
:100020000C9424010C9424010C9424010C942401BC
:100030000C9424010C9424010C9424010C942401AC
:100040000C9424010C9424010C9424010C9424019C
:100050000C94A0020C9424010C9424010C9424010F
:100060000C9424010C9424010C9424010C9424017C
:100070000C9424010C9424010C9424010C9424016C
:100080000C9424010C9424010C9424010C9424015C
:100090000C9424010C9424010C9424010C9424014C
:1000A0000C9424010C9424010C9424010C9424013C
:1000B0000C9424010C9424010C9424010C9424012C
:1000C0000C9424010C9424010C9424010C9424011C
:1000D0000C9424010C9424010C9424010C9424010C
:1000E0000C9424010C9424010C9424010C942401FC
:1000F0000C9424010C9424010C9424010C942401EC
:100100000C9424010C9424010C9424010C942401DB
:100110000C9424010C9424010C9424010C942401CB
:100120000C9424010C9424010C9424010C942401BB
:100130000C9424010C9424010C9424010C942401AB
:100140000C9424010C9424010C9424010C9424019B
:100150000C9424010C9424010C9424010C9424018B
:100160000C9424010C9424010C9424010C9424017B
:100170000C9424010C9424010C9424010C9424016B
:100180000C9424010C9424010C9424010C9424015B
:100190000C9424010C9424010C9424010C9424014B
:1001A0000C9424010C9424010C9424010C9424013B
:1001B0000C9426010C9424010C9424010C94240129
:1001C0000C9424010C9424010C9424010C9424011B
:1001D0000C9424010C9424010C9424010C9424010B
:1001E0000C9424010C9424010C9424010C942401FB
:1001F0000C9424010C9424010C94240111241FBE9E
:10020000CFEFCDBFDFE3DEBF00E00CBF18BE19BEED
:100210001ABE1BBE20E2A6E0B0E201C01D92AC30C7
:10022000B207E1F710E2A0E0B0E2E0E6FCE000E0B7
:100230000BBF02C007900D92A630B107D9F71BBEC5
:100240000E94AF020C942E060C9400001F920F9295
:100250000FB60F92112408B60F9218BE0F9008BE69
:100260000F900FBE0F901F90189582E08093500062
:100270008091510081FFFCCF88ED84BF81E08093A5
:10028000400008954F925F926F927F92AF92BF921B
:10029000CF92DF92EF92FF920F931F930E94A004E0
:1002A000A80197010E94A0042B013C0120E030E04E
:1002B00040E752E4C601B5010E946A039B01AC010C
:1002C000C301B2010E94A00420E030E040E851E404
:1002D0000E94A0049B01AC0160E074E284EF9BE407
:1002E0000E946A0320E030E040E85FE30E94FD02E4
:1002F0000E94E303CB011F910F91FF90EF90DF90DD
:10030000CF90BF90AF907F906F905F904F90089587
:100310008F929F92AF92BF92CF92DF92EF92FF9215
:100320000F93CF93DF93EB015A01490189E190E0EC
:100330000E940D05FC011282138285E590E0808306
:1003400091838AE590E08483958386EA9FEF868394
:100350009783108686E0858785E0868784E0878797
:1003600080898E7F808BC187D287A386B486818A5D
:10037000928A038BC48AD58AE68AF78A86E9808FB7
:1003800080E2D50111968C93119780E411968C939D
:10039000119780E111968C93188291E0998389815D
:1003A000806189839E83CF01DF91CF910F91FF9070
:1003B000EF90DF90CF90BF90AF909F908F90089577
:1003C0004F925F926F927F928F929F92AF92BF9265
:1003D000CF92DF92EF92FF920F931F93CF93DF9311
:1003E00000D000D0CDB7DEB789839A83C42ED22E39
:1003F000662381F0DC011B96ED91FC911C9781E056
:1004000090E01E960C9002C0880F991F0A94E2F7A4
:10041000858310C0A981BA811B96ED91FC911C9730
:1004200081E090E01E960C9002C0880F991F0A94FC
:10043000E2F78683E981FA8160878189928923893D
:10044000289FB001299F700D112484889588A68863
:10045000B78880E090E00E941204A50194010E94F8
:10046000A00420E030E044EB53E40E946A034B0117
:100470005C016C2D70E080E090E00E941404A50106
:1004800094010E94A0049B01AC010E94FE020E9404
:10049000DC03A981BA816D937C9311975896DC9205
:1004A000589719968D909C901A976090062070909E
:1004B0000720F3011389218932892D833E836D2D15
:1004C00070E080E090E00E9412045B016C01D301B7
:1004D00054964D905D906D907C905797612F70E091
:1004E00080E090E00E94120469837A838B839C836E
:1004F000ED81FE81BF0180E090E00E941204830143
:10050000720129813A814B815C810E944201D401B0
:1005100098968D939C9399972696CDBFDEBFDF91D9
:10052000CF911F910F91FF90EF90DF90CF90BF90F0
:10053000AF909F908F907F906F905F904F900895B5
:100540001F920F920FB60F92112408B60F9218BE89
:100550000F9008BE0F900FBE0F901F9018950E942D
:1005600035010F2EC12CD12CF0E8EF2EFFE3FF2E2A
:10057000F02D00E128EC30E040E456E060E478E063
:1005800080910620909107200E9488018093062088
:1005900090930720DC011B96ED91FC911C97C1E024
:1005A000D0E09E011D960C9002C0220F331F0A94CA
:1005B000E2F7258328EC44EB60E00E94E00181E053
:1005C0008093A2007894BFEF23E234EF80E0B15033
:1005D000204030408040D9F700C00000E091062064
:1005E000F0910720A385B485058402C0CC0FDD1FE0
:1005F0000A94E2F71696CC93FFCF5058BB27AA2750
:100600000E9415030C9466040E94580438F00E945E
:100610005F0420F039F49F3F19F426F40C9455043C
:100620000EF4E095E7FB0C944F04E92F0E94770449
:1006300058F3BA17620773078407950720F079F417
:10064000A6F50C9499040EF4E0950B2EBA2FA02D6C
:100650000B01B90190010C01CA01A0011124FF276F
:10066000591B99F0593F50F4503E68F11A16F0406A
:10067000A22F232F342F4427585FF3CF4695379569
:100680002795A795F0405395C9F77EF41F16BA0B2E
:10069000620B730B840BBAF09150A1F0FF0FBB1FDC
:1006A000661F771F881FC2F70EC0BA0F621F731F25
:1006B000841F48F4879577956795B795F7959E3F82
:1006C00008F0B0CF9395880F08F09927EE0F979513
:1006D000879508950E947E030C9466040E945F042F
:1006E00058F00E94580440F029F45F3F29F00C9420
:1006F0004F0451110C949A040C9455040E947704F1
:1007000068F39923B1F3552391F3951B550BBB2740
:10071000AA2762177307840738F09F5F5F4F220F85
:10072000331F441FAA1FA9F335D00E2E3AF0E0E87C
:1007300032D091505040E695001CCAF72BD0FE2FC6
:1007400029D0660F771F881FBB1F2617370748075A
:10075000AB07B0E809F0BB0B802DBF01FF27935812
:100760005F4F3AF09E3F510578F00C944F040C9483
:100770009A045F3FE4F3983ED4F3869577956795A6
:10078000B795F7959F5FC9F7880F911D9695879547
:1007900097F90895E1E0660F771F881FBB1F621766
:1007A00073078407BA0720F0621B730B840BBA0B24
:1007B000EE1F88F7E09508950E94E3036894B11155
:1007C0000C949A0408950E947F0488F09F5798F033
:1007D000B92F9927B751B0F0E1F0660F771F881F46
:1007E000991F1AF0BA95C9F714C0B13091F00E9460
:1007F0009904B1E008950C949904672F782F882705
:10080000B85F39F0B93FCCF3869577956795B39586
:10081000D9F73EF490958095709561957F4F8F4FF5
:100820009F4F0895E89409C097FB3EF490958095FA
:10083000709561957F4F8F4F9F4F9923A9F0F92FA6
:1008400096E9BB279395F695879577956795B79524
:10085000F111F8CFFAF4BB0F11F460FF1BC06F5F0A
:100860007F4F8F4F9F4F16C0882311F096E911C01C
:10087000772321F09EE8872F762F05C0662371F03D
:1008800096E8862F70E060E02AF09A95660F771F51
:10089000881FDAF7880F9695879597F9089597F945
:1008A0009F6780E870E060E008959FEF80EC089516
:1008B00000240A941616170618060906089500243F
:1008C0000A9412161306140605060895092E0394B9
:1008D000000C11F4882352F0BB0F40F4BF2B11F42D
:1008E00060FF04C06F5F7F4F8F4F9F4F089557FD8C
:1008F0009058440F551F59F05F3F71F04795880F8E
:1009000097FB991F61F09F3F79F087950895121624
:1009100013061406551FF2CF4695F1DF08C01616D0
:1009200017061806991FF1CF869571056105089481
:100930000895E894BB2766277727CB0197F9089598
:100940000E94B3040C9466040E94580438F00E947C
:100950005F0420F0952311F00C944F040C9455047F
:1009600011240C949A040E94770470F3959FC1F3AC
:10097000950F50E0551F629FF001729FBB27F00D4D
:10098000B11D639FAA27F00DB11DAA1F649F6627A2
:10099000B00DA11D661F829F2227B00DA11D621FF1
:1009A000739FB00DA11D621F839FA00D611D221FAB
:1009B000749F3327A00D611D231F849F600D211D8F
:1009C000822F762F6A2F11249F5750409AF0F1F012
:1009D00088234AF0EE0FFF1FBB1F661F771F881F7B
:1009E00091505040A9F79E3F510580F00C944F0460
:1009F0000C949A045F3FE4F3983ED4F38695779580
:100A00006795B795F795E7959F5FC1F7FE2B880F20
:100A1000911D9695879597F908950F931F93CF93FE
:100A2000DF938230910510F482E090E0E0910A209B
:100A3000F0910B2020E030E0A0E0B0E0309719F119
:100A4000408151810281138148175907C8F08417EA
:100A5000950769F4109731F012960C93129713963C
:100A60001C9327C000930A2010930B2022C021154D
:100A7000310519F04217530718F49A01BD01EF012F
:100A8000DF01F801DBCF21153105F9F0281B390B07
:100A90002430310580F48A819B816115710521F034
:100AA000FB018283938304C080930A2090930B20E0
:100AB000FE01329644C0FE01E20FF31F8193919331
:100AC00022503109288339833AC02091082030917F
:100AD0000920232B41F42091022030910320209300
:100AE0000820309309202091002030910120211509
:100AF000310541F42DB73EB74091042050910520B7
:100B0000241B350BE0910820F0910920E217F30730
:100B1000A0F42E1B3F0B2817390778F0AC014E5F6D
:100B20005F4F2417350748F04E0F5F1F4093082092
:100B3000509309208193919302C0E0E0F0E0CF014F
:100B4000DF91CF911F910F910895CF93DF9300977D
:100B500009F481C0FC01329712821382A0910A200D
:100B6000B0910B20109781F420813181820F931F67
:100B700020910820309109202817390751F5E0937A
:100B80000820F093092067C0ED0120E030E0CE1787
:100B9000DF0740F44A815B819E0141155105F1F068
:100BA000EA01F5CFC283D38340815181840F951F21
:100BB000C817D90759F488819981840F951F029627
:100BC000808391838A819B81828393832115310560
:100BD00029F4E0930A20F0930B203DC0E901EA8359
:100BE000FB8349915991C40FD51FEC17FD0761F4A0
:100BF00080819181840F951F0296E90188839983F2
:100C0000828193818A839B83E0E0F0E012968D914C
:100C10009C911397009719F0FD01DC01F7CF8D919E
:100C20009C9111979D012E5F3F4F820F931F209142
:100C30000820309109202817390769F4309729F4E2
:100C400010920A2010920B2002C012821382A093ED
:100C50000820B0930920DF91CF910895F894FFCF39
:060C600000000C20200042
:00000001FF
