S01A000054696D6572436F756E74446F776E546573742E73726563C8
S11300000C9402010C9428010C9428010C942801EE
S11300100C9428010C9428010C9428010C942801B8
S11300200C9428010C9428010C9428010C942801A8
S11300300C9428010C9428010C9428010C94280198
S11300400C9428010C9428010C9428010C94280188
S11300500C9446010C9428010C9428010C9428015A
S11300600C9428010C9428010C9428010C94280168
S11300700C9428010C9428010C9428010C94280158
S11300800C9428010C9428010C9428010C94280148
S11300900C9428010C9428010C9428010C94280138
S11300A00C9428010C9428010C9428010C94280128
S11300B00C9428010C9428010C9428010C94280118
S11300C00C9428010C9428010C9428010C94280108
S11300D00C9428010C9428010C9428010C942801F8
S11300E00C9428010C9428010C9428010C942801E8
S11300F00C9428010C9428010C9428010C942801D8
S11301000C9428010C9428010C9428010C942801C7
S11301100C9428010C9428010C9428010C942801B7
S11301200C9428010C9428010C9428010C942801A7
S11301300C9428010C9428010C9428010C94280197
S11301400C9428010C9428010C9428010C94280187
S11301500C9428010C9428010C9428010C94280177
S11301600C9428010C9428010C9428010C94280167
S11301700C9428010C9428010C9428010C94280157
S11301800C9428010C9428010C9428010C94280147
S11301900C9428010C9428010C9428010C94280137
S11301A00C9428010C9428010C9428010C94280127
S11301B00C942A010C9428010C9428010C94280115
S11301C00C9428010C9428010C9428010C94280107
S11301D00C9428010C9428010C9428010C942801F7
S11301E00C9428010C9428010C9428010C942801E7
S11301F00C9428010C9428010C9428010C945501AA
S11302000C94590111241FBECFEFCDBFDFE3DEBF35
S113021000E00CBF18BE19BE1ABE1BBE20E2A6E049
S1130220B0E201C01D92A031B207E1F710E2A0E0F4
S1130230B0E2E6E7F5E000E00BBF02C007900D92E4
S1130240A630B107D9F71BBE0E9477010C94B902FE
S11302500C9400001F920F920FB60F92112408B64F
S11302600F9218BE0F9008BE0F900FBE0F901F90F4
S1130270189582E0809350008091510081FFFCCF5B
S113028088ED84BF81E08093400008951F920F920F
S11302900FB60F92112408B60F9218BE0F9008BE25
S11302A00F900FBE0F901F90189521E0FC01208342
S11302B0089521E0FC012083089583E090E00E94EA
S11302C09801FC01108225E531E0218332830895F1
S11302D085E090E00E94980120EB34E0FC0121834A
S11302E03283108229E531E02383348308950E9408
S11302F0390180910620909107200E945D0180932E
S113030006209093072080910A2090910B200E9450
S11303105D0180930A2090930B2080910820909196
S113032009200E9468018093082090930920FFCF40
S11303300F931F93CF93DF938230910510F482E0E3
S113034090E0E0910E20F0910F2020E030E0A0E05A
S1130350B0E0309719F1408151810281138148172F
S11303605907C8F08417950769F4109731F012966D
S11303700C93129713961C9327C000930E2010938E
S11303800F2022C02115310519F04217530718F424
S11303909A01BD01EF01DF01F801DBCF2115310521
S11303A0F9F0281B390B2430310580F48A819B81B4
S11303B06115710521F0FB018283938304C080934E
S11303C00E2090930F20FE01329644C0FE01E20FEE
S11303D0F31F8193919322503109288339833AC0C2
S11303E020910C2030910D20232B41F420910220E8
S11303F03091032020930C2030930D202091002075
S1130400309101202115310541F42DB73EB74091BB
S1130410042050910520241B350BE0910C20F09111
S11304200D20E217F307A0F42E1B3F0B2817390702
S113043078F0AC014E5F5F4F2417350748F04E0F3C
S11304405F1F40930C2050930D208193919302C021
S1130450E0E0F0E0CF01DF91CF911F910F9108957B
S1130460CF93DF93009709F481C0FC013297128285
S11304701382A0910E20B0910F20109781F4208157
S11304803181820F931F20910C2030910D20281769
S1130490390751F5E0930C20F0930D2067C0ED016E
S11304A020E030E0CE17DF0740F44A815B819E01F3
S11304B041155105F1F0EA01F5CFC283D3834081A0
S11304C05181840F951FC817D90759F488819981E0
S11304D0840F951F0296808391838A819B818283F6
S11304E093832115310529F4E0930E20F0930F2016
S11304F03DC0E901EA83FB8349915991C40FD51F9B
S1130500EC17FD0761F480819181840F951F029699
S1130510E90188839983828193818A839B83E0E0C4
S1130520F0E012968D919C911397009719F0FD01BC
S1130530DC01F7CF8D919C9111979D012E5F3F4F68
S1130540820F931F20910C2030910D20281739071A
S113055069F4309729F410920E2010920F2002C0F3
S113056012821382A0930C20B0930D20DF91CF91BF
S10905700895F894FFCF8A
S10905760000102020002B
S9030000FC
