:100000000C94FE000C941B010C941B010C941B011E
:100010000C941B010C941B010C941B010C941B01F0
:100020000C941B010C941B010C941B010C941B01E0
:100030000C941B010C941B010C941B010C941B01D0
:100040000C941B010C941B010C941B010C941B01C0
:100050000C94530B0C941B010C941B010C941B016E
:100060000C941B010C941B010C941B010C941B01A0
:100070000C941B010C941B010C941B010C941B0190
:100080000C941B010C941B010C941B010C941B0180
:100090000C941B010C941B010C941B010C941B0170
:1000A0000C941B010C941B010C941B010C941B0160
:1000B0000C941B010C941B010C941B010C941B0150
:1000C0000C941B010C941B010C941B010C941B0140
:1000D0000C941B010C941B010C941B010C941B0130
:1000E0000C941B010C941B010C941B010C941B0120
:1000F0000C941B010C941B010C941B010C941B0110
:100100000C941B010C941B010C941B010C941B01FF
:100110000C941B010C941B010C941B010C941B01EF
:100120000C941B010C941B010C941B010C941B01DF
:100130000C941B010C941B010C941B010C941B01CF
:100140000C941B010C941B010C941B010C947B0B55
:100150000C941B010C941B010C941B010C941B01AF
:100160000C941B010C941B010C941B010C941506A0
:100170000C94DB050C941B010C941B010C941B01CB
:100180000C941B010C941B010C941B010C941B017F
:100190000C941B010C941B010C941B010C941B016F
:1001A0000C941B010C941B010C941B010C941B015F
:1001B0000C941B010C941B010C941B010C941B014F
:1001C0000C941B010C941B010C941B010C941B013F
:1001D0000C941B010C941B010C941B010C941B012F
:1001E0000C941B010C941B010C941B010C941B011F
:1001F0000C941B010C941B010C941B0111241FBEB9
:10020000CFEFCDBFD7E2DEBF10E2A0E0B0E2E2E286
:10021000FFE102C005900D92AE35B107D9F720E29B
:10022000AEE5B0E201C01D92AC3AB207E1F70E9420
:10023000F80B0C948F0F0C9400000F931F93CF9327
:10024000DF93082F162FD42FC22F84E090E00E9456
:10025000330EFC0100831183D2838381C0FB80F9BC
:100260008383CF01DF91CF911F910F9108950F9359
:100270001F93CF93DF938C01EB0184E090E00E9409
:10028000330EFC0102831383C083D183DF91CF91AE
:100290001F910F91089587E090E00E94330EFC01BA
:1002A000168214821582108211821282138208959E
:1002B000FC0182819381892B51F462837383DB017A
:1002C0001D921C92828193818083918307C08081DB
:1002D0009181DB018D939C936083718380819181F7
:1002E0008483958386818F5F86830895FC01A48132
:1002F000B58112968D919C9113972D913C912483F9
:1003000035830895FC01A481B58112968D919C914D
:1003100013972D913C912483358308950F931F9358
:10032000CF93DF93DC01ED91FC913097D1F0EC019C
:1003300000811181828193810E94CB0EE881F98135
:1003400010821182E881F981128213828881998159
:100350000E94CB0E088319830C831D838E818150EC
:100360008E83DF91CF911F910F910895CF93DF93EB
:10037000EC0103C0CE010E948E0188819981892BF6
:10038000C9F7188219821C821D821A821B821E8262
:10039000DF91CF910895EF92FF920F931F93CF9328
:1003A000DF938C01EB01DC01ED90FC900E944B018E
:1003B000B7010E943701BC01C8010E9458018A851B
:1003C0009B850E94540FE82E888599850E94540FC2
:1003D000F82E8E819F810E94540FEC81FD812E2D7D
:1003E0004F2D682F80810E941D0160E070E00E9407
:1003F0003701D801ED91FC91BC01828193810E946B
:100400005801DF91CF911F910F91FF90EF900895C8
:10041000BF92CF92DF92EF92FF920F931F93CF93F1
:10042000DF937C01EB01B42EDC01CD90DC90F60172
:100430000281138180910620882381F00E944B0164
:10044000B6010E943701BC01C7010E945801D701C3
:10045000ED91FC910281138110920620F801E08059
:10046000F1808A859B850E94540FC82E88859985C6
:100470000E94540FD82E8E819F810E94540FEC81D0
:10048000FD812C2D4D2D682F80810E941D01B7010B
:100490000E943701BC01C8010E945801BB2019F01D
:1004A00081E080930620DF91CF911F910F91FF9003
:1004B000EF90DF90CF90BF900895E0917420F0917D
:1004C000752080819181848395830EC08281938180
:1004D0000E94B601E0917420F0917520A481B5814D
:1004E0008D919C9184839583A0917420B091752007
:1004F0001496ED91FC911597309741F7CD010E942C
:10050000B6010895CF93DF9380E190E00E94330E0F
:10051000EC0180E190E00E94330E88839983FC0116
:10052000108280E190E00E94330E8A839B83FC015D
:10053000108280E190E00E94330E8C839D83FC0149
:10054000108280E190E00E94330E8E839F83FC0135
:10055000108280E190E00E94330E88879987FC0129
:10056000108280E190E00E94330E8A879B87FC0115
:10057000108280E190E00E94330E8E879F87FC01FD
:100580001082CE01DF91CF9108950F931F93CF93E7
:10059000DF938C01EB010E94FC04BC0188819981EE
:1005A0000E94720F6881798142E050E080911520AD
:1005B000909116200E94790F892B09F04EC0C80136
:1005C0000E94FC04BC018A819B810E94720FC801B9
:1005D0000E94FC04BC018C819D810E94720FC801A5
:1005E0000E94FC04BC018E819F810E94720FC80191
:1005F0000E94FC04BC01888599850E94720FC80185
:100600000E94FC04BC018A859B850E94720FC80170
:100610000E94FC04BC018C859D850E94720FC8015C
:100620000E94FC04BC018E859F850E94720F6E851E
:100630007F8542E050E080911320909114200E9429
:10064000790F892B29F4C8010E94320581E009C085
:10065000C8010E94320580E004C0C8010E94320532
:1006600080E0DF91CF911F910F910895CF93DF9399
:10067000FC01C281D38143E050E0BE018091112092
:10068000909112200E94790F892B71F143E050E084
:10069000BE0180910F20909110200E94790F892B2C
:1006A00029F143E050E0BE0180910D2090910E2091
:1006B0000E94790F892BE1F043E050E0BE01809168
:1006C0000B2090910C200E94790F892B99F043E028
:1006D00050E0BE018091092090910A200E94790F7C
:1006E000892B51F482E009C086E007C085E005C08F
:1006F00084E003C083E001C081E0DF91CF910895E1
:10070000FC018081813331F0823331F0833331F465
:1007100083E0089581E0089582E0089583E60895D6
:100720000E9499050895CF93DF93EC0184E390E252
:100730000E9499058FEB9AED0197F1F700C0000038
:1007400088E390E20E9499059FEF28EA81E09150AA
:1007500020408040E1F700C00000CE010E949905D2
:100760008FEB9AED0197F1F700C0000080E490E272
:100770000E9499058FEB9AED0197F1F700C00000F8
:1007800080E490E20E9499058FEB9AED0197F1F7D2
:1007900000C0000080E490E20E9499058FEB9AED82
:1007A0000197F1F700C0000080E490E20E949905F3
:1007B0008FEB9AED0197F1F700C0000083E490E21F
:1007C0000E9499058FEB9AED0197F1F700C00000A8
:1007D00081E0DF91CF910895E0916220F091632054
:1007E000858980FF80C060915E2070915F20CF017D
:1007F0000E94C502882309F472C080915E20909106
:100800005F200E9436038330E1F128F4813061F0EB
:10081000823041F10895853009F453C008F441C095
:10082000863009F455C00895E0915E20F0915F2074
:10083000848195810E948003823051F0833069F079
:10084000813009F050C087E490E20E94930308953C
:100850008AE490E20E94930308958DE490E20E945E
:100860009303089560915E2070915F2080917420C1
:10087000909175200E94CB0187E490E20E9493033F
:10088000089560915E2070915F2040E08091742017
:10089000909175200E94080287E490E20E949303E1
:1008A000089560915E2070915F2041E080917420F6
:1008B000909175200E94080287E490E20E949303C1
:1008C000089580E590E20E9493030E94EF0B089543
:1008D00083E590E20E9493030E94BD0B089586E594
:1008E00090E20E9493030895CF93DF9386E090E017
:1008F0000E94330EEC0160E18091622090916320B0
:100900000E94A804809362209093632026E047E031
:1009100060E676E080EB99E00E94520580915E20CF
:1009200090915F200E94820280935E2090935F20CE
:100930008CEE93E08C839D8380E993E08883998398
:1009400083E993E08A839B83CE01DF91CF91089561
:10095000EF92FF920F931F93CF93DF93062F86E1C1
:1009600090E00E94330E7C0110E00FC0C12FD0E058
:10097000802F90E00E94330ECC0FDD1FCE0DDF1DC7
:1009800088839983FC0110821F5F193078F3802FD0
:1009900090E00E94330EF701828B938BFC01108252
:1009A000F701148A85898E7F8260858BC701DF916C
:1009B000CF911F910F91FF90EF900895CF93DF9308
:1009C000EC01EC89E93060F481E08E0F8C8BF0E073
:1009D000EE0FFF1FEC0FFD1F808191810E94720FAF
:1009E0008D898D7F8D8B8C89883019F48D898160FC
:1009F0008D8BDF91CF9108951F93CF93DF93EC01FF
:100A0000688179818A899B890E94720F10E014C0E5
:100A1000812F90E0FC013196EE0FFF1FEC0FFD1FC0
:100A200060817181880F991FFE01E80FF91F808195
:100A300091810E94720F1F5F8C89181748F38823D9
:100A400011F081508C8B8D898E7F8D8B8C898111DB
:100A500003C08D8982608D8B8A899B89DF91CF91BC
:100A60001F910895DC0190E00BC0E92FF0E0EE0F3C
:100A7000FF1FEA0FFB1F0190F081E02D10829F5FA6
:100A8000993098F35296ED91FC91539710825496B9
:100A90001C92549755968C9155978E7F82605596EF
:100AA0008C930895FB01809366209093672081E0EA
:100AB00090E0BC0102C0660F771F4A95E2F765839C
:100AC000618302C0880F991F2A95E2F78283E09123
:100AD0006620F09167208CE0868380E4878383E042
:100AE000858380E28383A0EAB0E012968C9112970E
:100AF000826012968C9384818861848380E006C032
:100B0000E82FF0E0E857FF4D10828F5F8031C0F38F
:100B100080E190E00E94330E80939820909399207A
:100B200080E190E00E94330E80938620909387208E
:100B30000895BC0180918620909187200E94720FB9
:100B4000E0916620F091672083818260838308951D
:100B500090EE980F9F3550F4E091652091E09E0F44
:100B600090936520F0E0E857FF4D80838D3031F0A1
:100B7000882321F0809165208D30D0F0A0916520F0
:100B8000E1E0EA0FB0E0A857BF4D8AE08C9381E026
:100B90008E0FF0E0E857FF4D9DE09083E82FF0E0E6
:100BA000E857FF4D10821092652088E890E2089582
:100BB00080E090E008951F920F920FB60F921124DB
:100BC0008F939F93EF93FF9390916420E091862001
:100BD000F0918720E90FF11D8081882331F0803268
:100BE00098F48A3089F08D3079F0E0916620F091A8
:100BF00067201082E0916620F091672083818D7FCD
:100C000083831092642008C0E0916620F0916720F1
:100C10009F5F909364208083FF91EF919F918F91CC
:100C20000F900FBE0F901F9018951F920F920FB646
:100C30000F9211242F933F934F935F936F937F9362
:100C40008F939F93AF93BF93EF93FF93E0916620B1
:100C5000F091672080810E94A8058093982090934E
:100C60009920009759F0BC018091622090916320F7
:100C70000E94DE041092982010929920FF91EF912B
:100C8000BF91AF919F918F917F916F915F914F91A4
:100C90003F912F910F900FBE0F901F901895CF92FC
:100CA000DF92EF92FF921F93CF93DF93182FEB0108
:100CB00089899A892B89289FB001299F700D112459
:100CC00080E090E00E94380D2C893D894E895F8933
:100CD0000E94C60D20E030E044EB53E40E94900CEB
:100CE0006B017C01612F110F770B880B990B0E9410
:100CF0003A0DA70196010E94C60D0E94020DCB017C
:100D0000DF91CF911F91FF90EF90DF90CF900895EA
:100D1000FC0180898160808BA385B48581E090E0AF
:100D2000058402C0880F991F0A94E2F715968C93E8
:100D30008085882369F0A385B48581E090E00684EE
:100D400002C0880F991F0A94E2F715968C930CC085
:100D5000A385B48581E090E0068402C0880F991FC6
:100D60000A94E2F716968C930184F285E02D608355
:100D70000895FC01A681B7816C9383858160838788
:100D8000A085B18581E090E0028402C0880F991FA0
:100D90000A94E2F711968C930895FC0180898E7F66
:100DA000808B0184F285E02D10820895FC018385FB
:100DB0008E7F8387A085B18581E090E0028402C0A8
:100DC000880F991F0A94E2F712968C93A091A420A1
:100DD000B091A5201B968C9180FD0CC0A091A22003
:100DE000B091A3201B968C9180FD04C00680F781F2
:100DF000E02D10820895682F70E080E090E00E945E
:100E00003A0D2DE33AE047E951E40E94C60D20E097
:100E100030EC4FE055E40E94240C0E94090DCB01F8
:100E20000895DC011B96ED91FC911C9721E030E0C8
:100E3000A9011D960C9002C0440F551F0A94E2F7B9
:100E4000468308958F929F92AF92BF92CF92DF9286
:100E5000EF92FF920F93CF93DF93EB015A01490179
:100E600081E290E00E94330EFC011282138285E53C
:100E700090E08083918314821582168217821086F7
:100E800086E0858785E0868784E0878780898E7FF6
:100E9000808BC187D287A386B486818A928A038B8E
:100EA000C48AD58AE68AF78A86E9808F80E2D501EE
:100EB00011968C93119780E411968C93119780E191
:100EC00011968C93188291E099838981806189833E
:100ED0009E8388E896E0818F928F8DEC96E0838FD9
:100EE000948F81E197E0858F968F8FE496E0878FCE
:100EF00090A3A0EAB0E012968C91129781601296AE
:100F00008C93CF01DF91CF910F91FF90EF90DF9005
:100F1000CF90BF90AF909F908F900895EF92FF92E7
:100F20001F93CF93DF93EB017A01122F82E190E0C0
:100F30000E94330EFC01E086F186C683D783838549
:100F40008E7F83878AE590E0828393831482158263
:100F5000108211821287212F30E081E090E0AC01F5
:100F600002C0440F551F1A95E2F7D70112964C9311
:100F7000498145604983A98167E070E0621B730B7A
:100F8000AC0102C0440F551F6A95E2F74A2B498312
:100F90004F812F5F3F4F02C0880F991F2A95E2F7BC
:100FA000842B8F8380E49CE98EA39FA389EB96E03A
:100FB0008487958786ED96E0868797878BEF96E006
:100FC000808B918BA0EAB0E012968C911297826090
:100FD00012968C93CF01DF91CF911F91FF90EF90EC
:100FE0000895CF92DF92EF92FF921F93CF93DF93FA
:100FF000EC01162F89899A892B89289FB001299F96
:10100000700D112480E090E00E94380D2C893D89FC
:101010004E895F890E94C60D6B017C01612F70E0D3
:1010200080E090E00E943A0D20E030E040E752E49A
:101030000E94900C9B01AC01C701B6010E94C60D35
:101040000984DA85C02D20E030E040E851E40E94B8
:10105000C60D9B01AC0160E074E284EF9BE40E944A
:10106000900C20E030E040E85FE30E94230C0E94F7
:10107000090D68A779A7DF91CF911F91FF90EF909D
:10108000DF90CF9008950F931F93CF93DF93EC01E0
:10109000042F122F0E94F107EF8DF8A1BE01802FBF
:1010A0000995888399831887DF91CF911F910F91BC
:1010B0000895CF93DF93EC01862FE889F98909958C
:1010C00088839983DF91CF91089584E090E00E9416
:1010D000330EFC0110821182128213820895CF9286
:1010E000DF92EF92FF920F93CF93DF930F2EC12CDD
:1010F000D12CF0E8EF2EFFE3FF2EF02D00E128ECDD
:1011000030E040E656E060E479E08091A6209091DE
:10111000A7200E942207EC018093A6209093A7208D
:10112000EF8DF8A1BC018AE509958C839D83C09160
:10113000A620D091A720EF8DF8A1BE0186EA0995DF
:101140008E839F8328EC30E040E456E060E478E052
:1011500080919A2090919B200E942207EC0180931D
:101160009A2090939B20EF8DF8A1BC018AE5099508
:101170008C839D83C0919A20D0919B20EF8DF8A104
:10118000BE0186EA09958E839F8320E040E456E005
:1011900060E078E08091A2209091A3200E948E07C9
:1011A0008093A2209093A32021E040E456E060E0E9
:1011B00078E08091A4209091A5200E948E078093D2
:1011C000A4209093A5200E94650880939C20909372
:1011D0009D20DF91CF910F91FF90EF90DF90CF9006
:1011E0000895CF93DF93EC0184E090E00E94330EEA
:1011F000FC0110821182C283D383DF91CF910895C5
:101200001F93CF93DF93EC01162F83E090E00E94B1
:10121000330EFC011083C183D283DF91CF911F91E4
:101220000895CF93DF93EC01CB01642F0E94000956
:101230000E94F1082A813B81232B41F48A839B83FE
:1012400088839983FC011082118207C0288139812B
:10125000FC012083318388839983DF91CF910895A6
:10126000DC01E091692081E08E0F80936920F0E03D
:10127000EE0FFF1FEE0FFF1FEA58FF4D4D915D91DE
:101280006D917C91139740835183628373838C911A
:10129000833409F446C028F4813469F0823431F192
:1012A0000895843509F487C08A3509F455C0873418
:1012B00009F094C06CC013962C911397217011966D
:1012C0004C91119712966C9180919E2090919F2045
:1012D0000E94430860919E2070919F2040E0809181
:1012E0009C2090919D200E941109089513962C91A5
:1012F0001397217011964C91119712966C918091D1
:10130000A0209091A1200E9443086091A02070919C
:10131000A12040E080919C2090919D200E94110985
:10132000089513962C911397217011964C91119753
:1013300012966C918091A6209091A7200E9443085C
:101340006091A6207091A72040E080919C20909110
:101350009D200E941109089513962C9113972170D6
:1013600011964C91119712966C9180919A209091C0
:101370009B200E94430860919A2070919B2040E03E
:1013800080919C2090919D200E94110908951196B2
:101390006C918091A2209091A3200E9459086091A5
:1013A000A2207091A32041E080919C2090919D20EB
:1013B0000E941109089511966C918091A42090913A
:1013C000A5200E9459086091A4207091A52041E0B9
:1013D00080919C2090919D200E9411090895EF9288
:1013E000FF920F931F93CF93DF93DC0112962D9101
:1013F0003C911397232BD1F1EC0183E090E00E9404
:10140000330E8C01E881F981A281B3818C91D801DE
:101410008C93A281B38111968D919C911297D801E2
:1014200011968D939C931297E080F1800280F38156
:10143000E02D11821282E881F981828193810E94DC
:10144000CB0EE881F98112821382E881F981108242
:101450001182888199810E94CB0EE882F982EF285F
:1014600041F41A821B82802F912F05C080E090E00A
:1014700002C0802F912FDF91CF911F910F91FF908C
:10148000EF900895CF93DF93E0919C20F0919D2001
:1014900082819381892B71F1F89441E028C00E94E8
:1014A000EF09EC01888181110AC089819A81DC01F0
:1014B0005996ED91FC915A9764E0099509C089818C
:1014C0009A81DC011C96ED91FC911D9764E00995D1
:1014D00019821A82CE010E94CB0E80919C2090919D
:1014E0009D20FC012281338140E0232BC1F6411174
:1014F000F4CF7894DF91CF910895F89481E029C0DA
:1015000080919E2090919F20DC015D96ED91FC9151
:101510005E9709958091A0209091A120DC015D96B5
:10152000ED91FC915E9709958091A6209091A7205E
:10153000DC015D96ED91FC915E97099580919A2072
:1015400090919B20DC015D96ED91FC915E97099551
:1015500080E08111D5CF78940895F89481E03DC062
:1015600080919E2090919F20DC015B96ED91FC91F3
:101570005C9709958091A0209091A120DC015B9659
:10158000ED91FC915C9709958091A6209091A72000
:10159000DC015B96ED91FC915C97099580919A2016
:1015A00090919B20DC015B96ED91FC915C970995F5
:1015B0008091A2209091A320DC011E96ED91FC91D8
:1015C0001F9709958091A4209091A520DC011E967B
:1015D000ED91FC911F97099580E08111C1CF78941E
:1015E00008950E94AD0A0E947D0A0895E0919A2014
:1015F000F0919B2090899170E091A620F091A72016
:1016000080898170890F0895DC0112968D919C91DB
:10161000139780937020909371202D913C91119796
:1016200020936E2030936F2016964D915C91179702
:1016300040936C2050936D2014966D917C9115977A
:1016400060936A2070936B201896EC911897EE23A4
:1016500039F0FC0131971296ED93FC93139706C075
:10166000FC0131961296ED93FC9313978217930722
:1016700031F0481759071CF48617970734F05B962A
:10168000ED91FC915C97CD0109950E94F60A8111BC
:1016900009C0809168208F5F809368208F3D10F093
:1016A0001092682008951F920F920FB60F92112486
:1016B0002F933F934F935F936F937F938F939F935A
:1016C000AF93BF93EF93FF9380919A2090919B20CB
:1016D0000E94040BFF91EF91BF91AF919F918F9169
:1016E0007F916F915F914F913F912F910F900FBE1E
:1016F0000F901F9018951F920F920FB60F92112402
:101700002F933F934F935F936F937F938F939F9309
:10171000AF93BF93EF93FF938091A6209091A72062
:101720000E94040BFF91EF91BF91AF919F918F9118
:101730007F916F915F914F913F912F910F900FBECD
:101740000F901F901895CF93DF93FC012481358172
:10175000232B79F00E947601EC0105C0CE010E9496
:1017600082010E9430098C819D81892BB9F781E02B
:1017700001C080E0DF91CF9108950E94F10A0895A1
:10178000CF93DF93EB0120917220211103C00E94BF
:10179000A30B01C080E090917220911102C08823B8
:1017A00041F00E94420A81E080937320809372206E
:1017B00013C0811111C080917320882349F01092C9
:1017C00073200E945D028AE590E2FE01099504C043
:1017D00086E590E2FE010995DF91CF91089563E9D6
:1017E00073E080917420909175200E94C00B089541
:1017F0000E94160C0E946F080E944B018093742077
:101800009093752080916020909161200E947404D3
:1018100080936020909361207894E0916020F09113
:1018200061200480F581E02D0995F7CF82E0809357
:1018300050008091510081FFFCCF88ED84BF81E092
:101840008093400008955058BB27AA270E943B0C64
:101850000C948C0D0E947E0D38F00E94850D20F0B6
:1018600039F49F3F19F426F40C947B0D0EF4E095A7
:10187000E7FB0C94750DE92F0E949D0D58F3BA17E4
:10188000620773078407950720F079F4A6F50C9496
:10189000BF0D0EF4E0950B2EBA2FA02D0B01B90150
:1018A00090010C01CA01A0011124FF27591B99F0D6
:1018B000593F50F4503E68F11A16F040A22F232FE2
:1018C000342F4427585FF3CF469537952795A79532
:1018D000F0405395C9F77EF41F16BA0B620B730BD9
:1018E000840BBAF09150A1F0FF0FBB1F661F771F4A
:1018F000881FC2F70EC0BA0F621F731F841F48F4FF
:10190000879577956795B795F7959E3F08F0B0CF87
:101910009395880F08F09927EE0F9795879508956E
:101920000E94A40C0C948C0D0E94850D58F00E940E
:101930007E0D40F029F45F3F29F00C94750D511194
:101940000C94C00D0C947B0D0E949D0D68F399239F
:10195000B1F3552391F3951B550BBB27AA276217AB
:101960007307840738F09F5F5F4F220F331F441FB8
:10197000AA1FA9F335D00E2E3AF0E0E832D09150EC
:101980005040E695001CCAF72BD0FE2F29D0660FD9
:10199000771F881FBB1F261737074807AB07B0E81C
:1019A00009F0BB0B802DBF01FF2793585F4F3AF022
:1019B0009E3F510578F00C94750D0C94C00D5F3F5F
:1019C000E4F3983ED4F3869577956795B795F795A8
:1019D0009F5FC9F7880F911D9695879597F9089590
:1019E000E1E0660F771F881FBB1F6217730784072C
:1019F000BA0720F0621B730B840BBA0BEE1F88F73B
:101A0000E09508950E94090D6894B1110C94C00DE1
:101A100008950E94A50D88F09F5798F0B92F992737
:101A2000B751B0F0E1F0660F771F881F991F1AF0C9
:101A3000BA95C9F714C0B13091F00E94BF0DB1E062
:101A400008950C94BF0D672F782F8827B85F39F061
:101A5000B93FCCF3869577956795B395D9F73EF462
:101A600090958095709561957F4F8F4F9F4F08950A
:101A7000E89409C097FB3EF4909580957095619528
:101A80007F4F8F4F9F4F9923A9F0F92F96E9BB27DE
:101A90009395F695879577956795B795F111F8CF5A
:101AA000FAF4BB0F11F460FF1BC06F5F7F4F8F4FC5
:101AB0009F4F16C0882311F096E911C0772321F0BB
:101AC0009EE8872F762F05C0662371F096E8862F53
:101AD00070E060E02AF09A95660F771F881FDAF7AA
:101AE000880F9695879597F9089597F99F6780E8ED
:101AF00070E060E008959FEF80EC089500240A9460
:101B00001616170618060906089500240A941216D8
:101B10001306140605060895092E0394000C11F40B
:101B2000882352F0BB0F40F4BF2B11F460FF04C0B8
:101B30006F5F7F4F8F4F9F4F089557FD9058440F11
:101B4000551F59F05F3F71F04795880F97FB991F1C
:101B500061F09F3F79F087950895121613061406D9
:101B6000551FF2CF4695F1DF08C016161706180666
:101B7000991FF1CF86957105610508940895E89441
:101B8000BB2766277727CB0197F908950E94D90DC7
:101B90000C948C0D0E947E0D38F00E94850D20F073
:101BA000952311F00C94750D0C947B0D11240C945D
:101BB000C00D0E949D0D70F3959FC1F3950F50E0ED
:101BC000551F629FF001729FBB27F00DB11D639FEF
:101BD000AA27F00DB11DAA1F649F6627B00DA11D95
:101BE000661F829F2227B00DA11D621F739FB00D3B
:101BF000A11D621F839FA00D611D221F749F3327AB
:101C0000A00D611D231F849F600D211D822F762F43
:101C10006A2F11249F5750409AF0F1F088234AF020
:101C2000EE0FFF1FBB1F661F771F881F915050408C
:101C3000A9F79E3F510580F00C94750D0C94C00DD2
:101C40005F3FE4F3983ED4F3869577956795B79513
:101C5000F795E7959F5FC1F7FE2B880F911D96952D
:101C6000879597F908950F931F93CF93DF93823051
:101C7000910510F482E090E0E091AA20F091AB2071
:101C800020E030E0A0E0B0E0309719F140815181D0
:101C90000281138148175907C8F08417950769F422
:101CA000109731F012960C93129713961C9327C03D
:101CB0000093AA201093AB2022C02115310519F002
:101CC0004217530718F49A01BD01EF01DF01F80133
:101CD000DBCF21153105F9F0281B390B24303105F4
:101CE00080F48A819B816115710521F0FB0182835B
:101CF000938304C08093AA209093AB20FE01329678
:101D000044C0FE01E20FF31F8193919322503109E9
:101D1000288339833AC02091A8203091A920232B11
:101D200041F420910220309103202093A820309389
:101D3000A92020910020309101202115310541F486
:101D40002DB73EB74091042050910520241B350B40
:101D5000E091A820F091A920E217F307A0F42E1B30
:101D60003F0B2817390778F0AC014E5F5F4F2417FF
:101D7000350748F04E0F5F1F4093A8205093A920CD
:101D80008193919302C0E0E0F0E0CF01DF91CF9129
:101D90001F910F910895CF93DF93009709F481C0AD
:101DA000FC01329712821382A091AA20B091AB203D
:101DB000109781F420813181820F931F2091A820F8
:101DC0003091A9202817390751F5E093A820F09306
:101DD000A92067C0ED0120E030E0CE17DF0740F416
:101DE0004A815B819E0141155105F1F0EA01F5CF71
:101DF000C283D38340815181840F951FC817D907AF
:101E000059F488819981840F951F0296808391836C
:101E10008A819B81828393832115310529F4E09384
:101E2000AA20F093AB203DC0E901EA83FB834991EE
:101E30005991C40FD51FEC17FD0761F48081918182
:101E4000840F951F0296E90188839983828193818B
:101E50008A839B83E0E0F0E012968D919C9113972A
:101E6000009719F0FD01DC01F7CF8D919C9111973E
:101E70009D012E5F3F4F820F931F2091A82030912C
:101E8000A9202817390769F4309729F41092AA205D
:101E90001092AB2002C012821382A093A820B093AC
:101EA000A920DF91CF910895FC0188279927E89414
:101EB00021912032E9F3293010F02E30C8F32B3273
:101EC00041F02D3239F4689404C00E94870F820FCC
:101ED000911D219120532A30C0F31EF490958195D5
:101EE0009F4F0895FB01DC0101900D920020E1F766
:101EF0000895FB01DC014150504030F08D9101907C
:101F0000801919F40020B9F7881B990B08957AE01D
:101F1000979F902D879F802D910D11240895F894FF
:021F2000FFCFF1
:101F22000000AC2020000117201E20242023202A9C
:101F32002029202E203120535441545553004D4F17
:101F4200564500455441534B00454A4F42004546D1
:101F52000053460053460A005354415455530A0055
:101F6200300A0045460A00310A00320A00330A00EC
:0E1F7200340A00350A0039390A00360A000028
:00000001FF
