S0140000526F626F7441726D546573742E737265634A
S11300000C94FE000C941B010C941B010C941B011A
S11300100C941B010C941B010C941B010C941B01EC
S11300200C941B010C941B010C941B010C941B01DC
S11300300C941B010C941B010C941B010C941B01CC
S11300400C941B010C941B010C941B010C941B01BC
S11300500C9474060C941B010C941B010C941B014E
S11300600C941B010C941B010C941B010C941B019C
S11300700C941B010C941B010C941B010C941B018C
S11300800C941B010C941B010C941B010C941B017C
S11300900C941B010C941B010C941B010C941B016C
S11300A00C941B010C941B010C941B010C941B015C
S11300B00C941B010C941B010C941B010C941B014C
S11300C00C941B010C941B010C941B010C941B013C
S11300D00C941B010C941B010C941B010C941B012C
S11300E00C941B010C941B010C941B010C941B011C
S11300F00C941B010C941B010C941B010C941B010C
S11301000C941B010C941B010C941B010C941B01FB
S11301100C941B010C941B010C941B010C941B01EB
S11301200C941B010C941B010C941B010C941B01DB
S11301300C941B010C941B010C941B010C941B01CB
S11301400C941B010C941B010C941B010C949C0635
S11301500C941B010C941B010C941B010C941B01AB
S11301600C941B010C941B010C941B010C949B0517
S11301700C9461050C941B010C941B010C941B0141
S11301800C941B010C941B010C941B010C941B017B
S11301900C941B010C941B010C941B010C941B016B
S11301A00C941B010C941B010C941B010C941B015B
S11301B00C941B010C941B010C941B010C941B014B
S11301C00C941B010C941B010C941B010C941B013B
S11301D00C941B010C941B010C941B010C941B012B
S11301E00C941B010C941B010C941B010C941B011B
S11301F00C941B010C941B010C941B0111241FBEB5
S1130200CFEFCDBFD7E2DEBF10E2A0E0B0E2EEE96F
S1130210F0E102C005900D92AA35B107D9F720E2AA
S1130220AAE5B0E201C01D92AC38B207E1F70E9422
S1130230C8060C944D080C9400000F931F93CF93A1
S1130240DF93082F162FD42FC22F84E090E00E9452
S1130250F106FC0100831183D2838381C0FB80F902
S11302608383CF01DF91CF911F910F9108950F9355
S11302701F93CF93DF938C01EB0184E090E00E9405
S1130280F106FC0102831383C083D183DF91CF91F4
S11302901F910F91089587E090E00E94F106FC0100
S11302A0168214821582108211821282138208959A
S11302B0FC0182819381892B51F462837383DB0176
S11302C01D921C92828193818083918307C08081D7
S11302D09181DB018D939C936083718380819181F3
S11302E08483958386818F5F86830895EF92FF923E
S11302F00F931F93CF93DF938C01EB01DC01ED90FF
S1130300FC900E944B01B7010E943701BC01C80157
S11303100E9458018A859B850E941208E82E8885D0
S113032099850E941208F82E8E819F810E941208DE
S1130330EC81FD812E2D4F2D682F80810E941D019F
S113034060E070E00E943701D801ED91FC91BC019E
S1130350828193810E945801DF91CF911F910F9167
S1130360FF90EF900895BF92CF92DF92EF92FF92A9
S11303700F931F93CF93DF937C01EB01B42EDC0129
S1130380CD90DC90F60102811381809106208823B0
S113039081F00E944B01B6010E943701BC01C701E4
S11303A00E945801D701ED91FC91028113811092B2
S11303B00620F801E080F1808A859B850E9412085E
S11303C0C82E888599850E941208D82E8E819F8117
S11303D00E941208EC81FD812C2D4D2D682F808107
S11303E00E941D01B7010E943701BC01C8010E948F
S11303F05801BB2019F081E080930620DF91CF9152
S11304001F910F91FF90EF90DF90CF90BF900895D0
S1130410CF93DF9380E190E00E94F106EC0180E14C
S113042090E00E94F10688839983FC01108280E1A8
S113043090E00E94F1068A839B83FC01108280E194
S113044090E00E94F1068C839D83FC01108280E180
S113045090E00E94F1068E839F83FC01108280E16C
S113046090E00E94F10688879987FC01108280E160
S113047090E00E94F1068A879B87FC01108280E14C
S113048090E00E94F1068E879F87FC011082CE01C6
S1130490DF91CF9108950F931F93CF93DF938C0136
S11304A0EB010E948204BC01888199810E9430087A
S11304B06881798142E050E0809115209091162066
S11304C00E943708892B09F04EC0C8010E9482049B
S11304D0BC018A819B810E943008C8010E94820469
S11304E0BC018C819D810E943008C8010E94820455
S11304F0BC018E819F810E943008C8010E94820441
S1130500BC01888599850E943008C8010E94820434
S1130510BC018A859B850E943008C8010E94820420
S1130520BC018C859D850E943008C8010E9482040C
S1130530BC018E859F850E9430086E857F8542E0D0
S113054050E080911320909114200E943708892B49
S113055029F4C8010E94B80481E009C0C8010E94BE
S1130560B80480E004C0C8010E94B80480E0DF91B0
S1130570CF911F910F910895CF93DF93FC01C28116
S1130580D38143E050E0BE0180911120909112206C
S11305900E943708892B71F143E050E0BE0180913D
S11305A00F20909110200E943708892B29F143E0F5
S11305B050E0BE0180910D2090910E200E943708DA
S11305C0892BE1F043E050E0BE0180910B20909133
S11305D00C200E943708892B99F043E050E0BE01BB
S11305E08091092090910A200E943708892B51F4A8
S11305F082E009C086E007C085E005C084E003C04E
S113060083E001C081E0DF91CF910895FC018081F6
S1130610813331F0823331F0833331F483E0089550
S113062081E0089582E0089583E608950E941F05FD
S11306300895CF93DF93EC0184E390E20E941F05B9
S11306408FEB9AED0197F1F700C0000088E390E288
S11306500E941F059FEF28EA81E0915020408040CE
S1130660E1F700C00000CE010E941F058FEB9AED58
S11306700197F1F700C0000080E490E20E941F059A
S11306808FEB9AED0197F1F700C0000080E490E24F
S11306900E941F058FEB9AED0197F1F700C000004F
S11306A080E490E20E941F058FEB9AED0197F1F729
S11306B000C0000080E490E20E941F058FEB9AEDD9
S11306C00197F1F700C0000083E490E20E941F0547
S11306D08FEB9AED0197F1F700C0000081E0DF9104
S11306E0CF910895E0915E20F0915F20858980FF8D
S11306F080C060915A2070915B20CF010E944B0210
S1130700882309F472C080915A2090915B200E9442
S1130710BC028330E1F128F4813061F0823041F190
S11307200895853009F453C008F441C0863009F4B3
S113073055C00895E0915A20F0915B208481958101
S11307400E940603823051F0833069F0813009F051
S113075050C087E490E20E94190308958AE490E26D
S11307600E94190308958DE490E20E9419030895EC
S113077060915A2070915B20809164209091652053
S11307800E94760187E490E20E9419030895609123
S11307905A2070915B2040E0809164209091652004
S11307A00E94B30187E490E20E94190308956091C6
S11307B05A2070915B2041E08091642090916520E3
S11307C00E94B30187E490E20E941903089580E532
S11307D090E20E9419030E94C406089583E590E202
S11307E00E9419030E94C506089586E590E20E94BE
S11307F019030895CF93DF9386E090E00E94F106F9
S1130800EC0160E180915E2090915F200E942E04B3
S113081080935E2090935F2026E047E060E676E0D8
S113082080EB99E00E94D80480915A2090915B203B
S11308300E94080280935A2090935B2082E793E001
S11308408C839D8386E193E08883998389E193E097
S11308508A839B83CE01DF91CF910895EF92FF921B
S11308600F931F93CF93DF93062F86E190E00E94AE
S1130870F1067C0110E00FC0C12FD0E0802F90E082
S11308800E94F106CC0FDD1FCE0DDF1D88839983F6
S1130890FC0110821F5F193078F3802F90E00E94D2
S11308A0F106F701828B938BFC011082F701148A05
S11308B085898E7F8260858BC701DF91CF911F91DF
S11308C00F91FF90EF900895CF93DF93EC01EC89A3
S11308D0E93060F481E08E0F8C8BF0E0EE0FFF1FA7
S11308E0EC0FFD1F808191810E9430088D898D7FDE
S11308F08D8B8C89883019F48D8981608D8BDF9183
S1130900CF9108951F93CF93DF93EC016881798190
S11309108A899B890E94300810E014C0812F90E0DE
S1130920FC013196EE0FFF1FEC0FFD1F60817181FA
S1130930880F991FFE01E80FF91F808191810E94A1
S113094030081F5F8C89181748F3882311F08150F1
S11309508C8B8D898E7F8D8B8C89811103C08D89C1
S113096082608D8B8A899B89DF91CF911F91089535
S1130970DC0190E00BC0E92FF0E0EE0FFF1FEA0F5F
S1130980FB1F0190F081E02D10829F5F993098F356
S11309905296ED91FC915397108254961C92549761
S11309A055968C9155978E7F826055968C930895B9
S11309B0FB01809362209093632081E090E0BC016E
S11309C002C0660F771F4A95E2F76583618302C010
S11309D0880F991F2A95E2F78283E0916220F091B3
S11309E063208CE0868380E4878383E0858380E2D0
S11309F08383A0EAB0E012968C91129782601296DB
S1130A008C9384818861848380E006C0E82FF0E0C1
S1130A10E859FF4D10828F5F8031C0F380E190E090
S1130A200E94F106809378209093792080E190E0F1
S1130A300E94F10680936620909367200895BC017C
S1130A4080916620909167200E943008E091622096
S1130A50F0916320838182608383089590EE980FE0
S1130A609F3550F4E091612091E09E0F90936120B6
S1130A70F0E0E859FF4D80838D3031F0882321F078
S1130A80809161208D30D0F0A0916120E1E0EA0FE7
S1130A90B0E0A859BF4D8AE08C9381E08E0FF0E05E
S1130AA0E859FF4D9DE09083E82FF0E0E859FF4DB1
S1130AB010821092612088E690E2089580E090E030
S1130AC008951F920F920FB60F9211248F939F9344
S1130AD0EF93FF9390916020E0916620F09167205E
S1130AE0E90FF11D8081882331F0803298F48A3037
S1130AF089F08D3079F0E0916220F09163201082CA
S1130B00E0916220F091632083818D7F8383109232
S1130B10602008C0E0916220F09163209F5F909371
S1130B2060208083FF91EF919F918F910F900FBE72
S1130B300F901F9018951F920F920FB60F921124C9
S1130B402F933F934F935F936F937F938F939F93D1
S1130B50AF93BF93EF93FF93E0916220F0916320F2
S1130B6080810E942E0580937820909379200097AD
S1130B7059F0BC0180915E2090915F200E94640432
S1130B801092782010927920FF91EF91BF91AF914C
S1130B909F918F917F916F915F914F913F912F9191
S1130BA00F900FBE0F901F901895F89481E029C004
S1130BB080917E2090917F20DC015D96ED91FC91E7
S1130BC05E9709958091802090918120DC015D964B
S1130BD0ED91FC915E9709958091862090918720F4
S1130BE0DC015D96ED91FC915E97099580917A20E8
S1130BF090917B20DC015D96ED91FC915E970995C7
S1130C0080E08111D5CF78940895F89481E03DC0B7
S1130C1080917E2090917F20DC015B96ED91FC9188
S1130C205C9709958091802090918120DC015B96EE
S1130C30ED91FC915C970995809186209091872095
S1130C40DC015B96ED91FC915C97099580917A208B
S1130C5090917B20DC015B96ED91FC915C9709956A
S1130C608091822090918320DC011E96ED91FC916D
S1130C701F9709958091842090918520DC011E9610
S1130C80ED91FC911F97099580E08111C1CF789473
S1130C9008950E9405060E94D5050895FC018085EB
S1130CA0882331F08281938101968283938305C0E6
S1130CB082819381019782839383828193812081AE
S1130CC031818217930751F024813581821793076C
S1130CD028F426813781281739072CF0CF01038C9B
S1130CE0F48DE02D099508951F920F920FB60F927F
S1130CF011242F933F934F935F936F937F938F931D
S1130D009F93AF93BF93EF93FF9380917A20909139
S1130D107B200E944E06FF91EF91BF91AF919F916E
S1130D208F917F916F915F914F913F912F910F9090
S1130D300FBE0F901F9018951F920F920FB60F922F
S1130D4011242F933F934F935F936F937F938F93CC
S1130D509F93AF93BF93EF93FF93809186209091DD
S1130D6087200E944E06FF91EF91BF91AF919F9112
S1130D708F917F916F915F914F913F912F910F9040
S1130D800FBE0F901F90189508950E94490608956C
S1130D900E94E4060E944B01809364209093652096
S1130DA080915C2090915D200E94FA0380935C20E6
S1130DB090935D207894E0915C20F0915D20048014
S1130DC0F581E02D0995F7CF82E080935000809162
S1130DD0510081FFFCCF88ED84BF81E08093400007
S1130DE008950F931F93CF93DF938230910510F4EE
S1130DF082E090E0E0918A20F0918B2020E030E0C6
S1130E00A0E0B0E0309719F1408151810281138153
S1130E1048175907C8F08417950769F4109731F0FB
S1130E2012960C93129713961C9327C000938A2052
S1130E3010938B2022C02115310519F04217530756
S1130E4018F49A01BD01EF01DF01F801DBCF211590
S1130E503105F9F0281B390B2430310580F48A81DF
S1130E609B816115710521F0FB018283938304C08A
S1130E7080938A2090938B20FE01329644C0FE0119
S1130E80E20FF31F81939193225031092883398310
S1130E903AC02091882030918920232B41F420915D
S1130EA002203091032020938820309389202091C0
S1130EB00020309101202115310541F42DB73EB7B2
S1130EC04091042050910520241B350BE09188208B
S1130ED0F0918920E217F307A0F42E1B3F0B28178B
S1130EE0390778F0AC014E5F5F4F2417350748F09F
S1130EF04E0F5F1F409388205093892081939193D4
S1130F0002C0E0E0F0E0CF01DF91CF911F910F919B
S1130F100895CF93DF93009709F481C0FC013297C1
S1130F2012821382A0918A20B0918B20109781F4B1
S1130F3020813181820F931F209188203091892054
S1130F402817390751F5E0938820F093892067C06A
S1130F50ED0120E030E0CE17DF0740F44A815B81E9
S1130F609E0141155105F1F0EA01F5CFC283D38307
S1130F7040815181840F951FC817D90759F488817E
S1130F809981840F951F0296808391838A819B8126
S1130F90828393832115310529F4E0938A20F09309
S1130FA08B203DC0E901EA83FB8349915991C40F29
S1130FB0D51FEC17FD0761F480819181840F951F83
S1130FC00296E90188839983828193818A839B8332
S1130FD0E0E0F0E012968D919C911397009719F040
S1130FE0FD01DC01F7CF8D919C9111979D012E5F3E
S1130FF03F4F820F931F209188203091892028171A
S1131000390769F4309729F410928A2010928B20C2
S113101002C012821382A0938820B0938920DF91AA
S1131020CF910895FC0188279927E89421912032D3
S1131030E9F3293010F02E30C8F32B3241F02D3271
S113104039F4689404C00E944508820F911D2191CF
S113105020532A30C0F31EF4909581959F4F089534
S1131060FB01DC0101900D920020E1F70895FB01E2
S1131070DC014150504030F08D910190801919F4F9
S11310800020B9F7881B990B08957AE0979F902D5B
S1111090879F802D910D11240895F894FFCFB1
S113109E00008C2020000117201E20242023202A4B
S11310AE2029202E203120535441545553004D4FA6
S11310BE564500455441534B00454A4F4200454660
S11310CE0053460053460A005354415455530A00E4
S11310DE300A0045460A00310A00320A00330A007B
S10D10EE340A00350A0039390A00FB
S9030000FC
