:100000000C9412010C9438010C9438010C943801B2
:100010000C9438010C9438010C9438010C9438017C
:100020000C9438010C9438010C9438010C9438016C
:100030000C9438010C9438010C9438010C9438015C
:100040000C9438010C9438010C9438010C9438014C
:100050000C94900B0C9438010C9438010C943801DA
:100060000C9438010C9438010C9438010C9438012C
:100070000C9438010C9438010C9438010C9438011C
:100080000C9438010C9438010C9438010C9438010C
:100090000C9438010C9438010C9438010C943801FC
:1000A0000C9438010C9438010C9438010C943801EC
:1000B0000C9438010C9438010C9438010C943801DC
:1000C0000C9438010C9438010C9438010C943801CC
:1000D0000C9438010C94FE0B0C9438010C943801EC
:1000E0000C9438010C9438010C9438010C943801AC
:1000F0000C9438010C9438010C9438010C9438019C
:100100000C9438010C9438010C9438010C9438018B
:100110000C9438010C9438010C9438010C9438017B
:100120000C9438010C9438010C9438010C9438016B
:100130000C9438010C9438010C9438010C9438015B
:100140000C9438010C9438010C9438010C94C70BB2
:100150000C9438010C9438010C9438010C9438013B
:100160000C943C060C94F8050C9438010C9438015E
:100170000C9438010C9438010C9438010C9438011B
:100180000C9438010C9438010C9438010C9438010B
:100190000C9438010C9438010C9438010C943801FB
:1001A0000C9438010C9438010C9438010C943801EB
:1001B0000C94E80C0C9438010C9438010C94380120
:1001C0000C9438010C9438010C94350C0C943801C3
:1001D0000C9438010C9438010C9438010C943801BB
:1001E0000C9438010C9438010C9438010C943801AB
:1001F0000C9438010C9438010C9438010C94B00321
:100200000C94EF060C9409040C9431070C948506A9
:100210000C940C070C94AD030C9403070C94BE06CD
:100220000C94470711241FBECFEFCDBFDFE3DEBF25
:1002300000E00CBF18BE19BE1ABE1BBE10E2A0E043
:10024000B0E2E0EEF3E200E00BBF02C007900D92D7
:10025000A236B107D9F71BBE20E2A2E6B0E201C088
:100260001D92A839B207E1F70E94430E0C94EE11DB
:100270000C9400000F931F93CF93DF93082F162F3A
:10028000D42FC22F84E090E00E949210FC010083E2
:100290001183D2838381C0FB80F98383CF01DF91F7
:1002A000CF911F910F9108950F931F93CF93DF93D9
:1002B0008C01EB0184E090E00E949210FC0102832B
:1002C0001383C083D183DF91CF911F910F91089544
:1002D00087E090E00E949210FC0116821482158241
:1002E00010821182128213820895FC01828193810F
:1002F000892B51F462837383DB011D921C928281EE
:1003000093818083918307C080819181DB018D93EC
:100310009C9360837183808191818483958386819E
:100320008F5F86830895FC01A481B58112968D911B
:100330009C9113972D913C91248335830895FC0162
:10034000A481B58112968D919C9113972D913C912A
:100350002483358308950F931F93CF93DF93DC019C
:10036000ED91FC913097D1F0EC01008111818281F7
:1003700093810E942A11E881F98110821182E8811B
:10038000F98112821382888199810E942A1108833F
:1003900019830C831D838E8181508E83DF91CF91D1
:1003A0001F910F910895CF93DF93EC0103C0CE010D
:1003B0000E94AB0188819981892BC9F71882198223
:1003C0001C821D821A821B821E82DF91CF910895AA
:1003D000EF92FF920F931F93CF93DF938C01EB016A
:1003E000DC01ED90FC900E946801B7010E9454016D
:1003F000BC01C8010E9475018A859B850E94B311CA
:10040000E82E888599850E94B311F82E8E819F81F0
:100410000E94B311EC81FD812E2D4F2D682F80811C
:100420000E943A0160E070E00E945401D801ED9111
:10043000FC91BC01828193810E947501DF91CF9173
:100440001F910F91FF90EF900895BF92CF92DF928E
:10045000EF92FF920F931F93CF93DF937C01EB01F9
:10046000B42EDC01CD90DC90F601028113818091E5
:100470000620882381F00E946801B6010E94540181
:10048000BC01C7010E947501D701ED91FC91028169
:10049000138110920620F801E080F1808A859B8507
:1004A0000E94B311C82E888599850E94B311D82E59
:1004B0008E819F810E94B311EC81FD812C2D4D2DE9
:1004C000682F80810E943A01B7010E945401BC014B
:1004D000C8010E947501BB2019F081E080930620BD
:1004E000DF91CF911F910F91FF90EF90DF90CF9010
:1004F000BF900895E0917020F091712080819181EA
:10050000848395830EC0828193810E94D301E09100
:100510007020F0917120A481B5818D919C9184838C
:100520009583A0917020B09171201496ED91FC916B
:100530001597309741F7CD010E94D3010895CF93CD
:10054000DF9380E190E00E949210EC0180E190E066
:100550000E94921088839983FC01108280E190E0D0
:100560000E9492108A839B83FC01108280E190E0BC
:100570000E9492108C839D83FC01108280E190E0A8
:100580000E9492108E839F83FC01108280E190E094
:100590000E94921088879987FC01108280E190E088
:1005A0000E9492108A879B87FC01108280E190E074
:1005B0000E9492108E879F87FC011082CE01DF91EE
:1005C000CF9108950F931F93CF93DF938C01EB018D
:1005D0000E941905BC01888199810E94D11168810E
:1005E000798142E050E080911520909116200E9480
:1005F000D811892B09F04EC0C8010E941905BC0111
:100600008A819B810E94D111C8010E941905BC01F9
:100610008C819D810E94D111C8010E941905BC01E5
:100620008E819F810E94D111C8010E941905BC01D1
:10063000888599850E94D111C8010E941905BC01C5
:100640008A859B850E94D111C8010E941905BC01B1
:100650008C859D850E94D111C8010E941905BC019D
:100660008E859F850E94D1116E857F8542E050E086
:1006700080911320909114200E94D811892B29F485
:10068000C8010E944F0581E009C0C8010E944F05C2
:1006900080E004C0C8010E944F0580E0DF91CF9147
:1006A0001F910F910895CF93DF93FC01C281D381F5
:1006B00043E050E0BE0180911120909112200E94F1
:1006C000D811892B71F143E050E0BE0180910F20D9
:1006D000909110200E94D811892B29F143E050E01D
:1006E000BE0180910D2090910E200E94D811892B7F
:1006F000E1F043E050E0BE0180910B2090910C208E
:100700000E94D811892B99F043E050E0BE018091FE
:10071000092090910A200E94D811892B51F482E07F
:1007200009C086E007C085E005C084E003C083E01F
:1007300001C081E0DF91CF910895FC018081813378
:1007400031F0823331F0833331F483E0089581E076
:10075000089582E0089583E608950E94B6050895FD
:10076000CF93DF93EC0188E390E20E94B6058FEB14
:100770009AED0197F1F700C000008CE390E20E942F
:10078000B6059FEF28EA81E0915020408040E1F7D4
:1007900000C00000CE010E94B6058FEB9AED0197D4
:1007A000F1F700C0000084E490E20E94B6058FEBF0
:1007B0009AED0197F1F700C0000084E490E20E94F6
:1007C000B6058FEB9AED0197F1F700C0000084E4C5
:1007D00090E20E94B6058FEB9AED0197F1F700C009
:1007E000000084E490E20E94B6058FEB9AED019739
:1007F000F1F700C0000087E490E20E94B6058FEB9D
:100800009AED0197F1F700C0000081E0DF91CF91F0
:100810000895E0916620F0916720858980FF80C06F
:100820006091622070916320CF010E94E2028823D0
:1008300009F472C080916220909163200E9453035A
:100840008330E1F128F4813061F0823041F1089584
:10085000853009F453C008F441C0863009F455C00E
:100860000895E0916220F0916320848195810E9437
:100870009D03823051F0833069F0813009F050C01F
:100880008BE490E20E94B00308958EE490E20E940F
:10089000B003089581E590E20E94B003089560914D
:1008A00062207091632080917020909171200E944D
:1008B000E8018BE490E20E94B00308956091622009
:1008C0007091632040E080917020909171200E948F
:1008D00025028BE490E20E94B003089560916220AB
:1008E0007091632041E080917020909171200E946E
:1008F00025028BE490E20E94B003089584E590E223
:100900000E94B0030E94A30C089587E590E20E9424
:10091000B0030E94B00C08958AE590E20E94B003F3
:100920000895CF93DF9386E090E00E949210EC014F
:1009300060E180916620909167200E94C5048093B9
:1009400066209093672022E043E060E676E080EA4C
:1009500099E00E946F0580916220909163200E942F
:100960009F02809362209093632089E094E08C83BF
:100970009D838DEA93E08883998380EB93E08A835B
:100980009B83CE01DF91CF910895EF92FF920F9359
:100990001F93CF93DF93062F86E190E00E94921081
:1009A0007C0110E00FC0C12FD0E0802F90E00E94AA
:1009B0009210CC0FDD1FCE0DDF1D88839983FC01C3
:1009C00010821F5F193078F3802F90E00E94921000
:1009D000F701828B938BFC011082F701148A8589C1
:1009E0008E7F8260858BC701DF91CF911F910F9120
:1009F000FF90EF900895CF93DF93EC01EC89E930FD
:100A000060F481E08E0F8C8BF0E0EE0FFF1FEC0F97
:100A1000FD1F808191810E94D1118D898D7F8D8BE9
:100A20008C89883019F48D8981608D8BDF91CF910D
:100A300008951F93CF93DF93EC01688179818A89B0
:100A40009B890E94D11110E014C0812F90E0FC011D
:100A50003196EE0FFF1FEC0FFD1F60817181880F33
:100A6000991FFE01E80FF91F808191810E94D11129
:100A70001F5F8C89181748F3882311F081508C8BE5
:100A80008D898E7F8D8B8C89811103C08D898260C9
:100A90008D8B8A899B89DF91CF911F910895DC010D
:100AA00090E00BC0E92FF0E0EE0FFF1FEA0FFB1FF5
:100AB0000190F081E02D10829F5F993098F352965B
:100AC000ED91FC915397108254961C925497559631
:100AD0008C9155978E7F826055968C930895FB017B
:100AE00080936A2090936B2081E090E0BC0102C06B
:100AF000660F771F4A95E2F76583618302C0880F0E
:100B0000991F2A95E2F78283E0916A20F0916B2089
:100B10008CE0868380E4878383E0858380E283831F
:100B2000A0EAB0E012968C911297826012968C9394
:100B300084818861848380E006C0E82FF0E0EC586F
:100B4000FF4D10828F5F8031C0F380E190E00E9402
:100B50009210809384209093852080E190E00E9401
:100B6000921080937220909373200895BC0180911D
:100B70007220909173200E94D111E0916A20F0912F
:100B80006B20838182608383089590EE980F9F3558
:100B900050F4E091692091E09E0F90936920F0E07D
:100BA000EC58FF4D80838D3031F0882321F0809107
:100BB00069208D30D0F0A0916920E1E0EA0FB0E02B
:100BC000AC58BF4D8AE08C9381E08E0FF0E0EC587A
:100BD000FF4D9DE09083E82FF0E0EC58FF4D108230
:100BE0001092692084E790E2089580E090E00895F3
:100BF0001F920F920FB60F92112408B60F9218BED3
:100C00000BB60F921BBE8F939F93EF93FF93909120
:100C10006820E0917220F0917320E90FF11D80812E
:100C2000882331F0803298F48A3089F08D3079F061
:100C3000E0916A20F0916B201082E0916A20F0919F
:100C40006B2083818D7F83831092682008C0E091A0
:100C50006A20F0916B209F5F909368208083FF91C2
:100C6000EF919F918F910F900BBE0F9008BE0F9048
:100C70000FBE0F901F9018951F920F920FB60F92F4
:100C8000112408B60F9218BE09B60F9219BE0BB602
:100C90000F921BBE2F933F934F935F936F937F935E
:100CA0008F939F93AF93BF93EF93FF93E0916A204D
:100CB000F0916B2080810E94C505809384209093E1
:100CC0008520009759F0BC018091662090916720A3
:100CD0000E94FB041092842010928520FF91EF91D6
:100CE000BF91AF919F918F917F916F915F914F9144
:100CF0003F912F910F900BBE0F9009BE0F9008BE31
:100D00000F900FBE0F901F901895CF92DF92EF9229
:100D1000FF921F93CF93DF93182FEB0189899A8954
:100D20002B89289FB001299F700D112480E090E04D
:100D30000E94970F2C893D894E895F890E9425105A
:100D400020E030E044EB53E40E94EF0E6B017C01A5
:100D5000612F110F770B880B990B0E94990FA70138
:100D600096010E9425100E94610FCB01DF91CF9167
:100D70001F91FF90EF90DF90CF900895FC01808944
:100D80008160808BA385B48581E090E0058402C0FA
:100D9000880F991F0A94E2F715968C938085882313
:100DA00069F0A385B48581E090E0068402C0880FD5
:100DB000991F0A94E2F715968C930CC0A385B4850D
:100DC00081E090E0068402C0880F991F0A94E2F740
:100DD00016968C930184F285E02D60830895FC01C2
:100DE000A681B7816C93838581608387A085B18557
:100DF00081E090E0028402C0880F991F0A94E2F714
:100E000011968C930895FC0180898E7F808B0184DC
:100E1000F285E02D10820895FC0183858E7F838703
:100E2000A085B18581E090E0028402C0880F991FFF
:100E30000A94E2F712968C93A0919020B0919120A1
:100E40001B968C9180FD0CC0A0918E20B0918F20BC
:100E50001B968C9180FD04C00680F781E02D1082E6
:100E60000895682F70E080E090E00E94990F2DE3D4
:100E70003AE047E951E40E94251020E030EC4FE0D1
:100E800055E40E94830E0E94680FCB010895DC0197
:100E90001B96ED91FC911C9721E030E0A9011D9675
:100EA0000C9002C0440F551F0A94E2F74683089540
:100EB0008F929F92AF92BF92CF92DF92EF92FF926A
:100EC0000F93CF93DF93EB015A01490181E290E048
:100ED0000E949210FC011282138285E590E08083CB
:100EE00091831482158216821782108686E0858788
:100EF00085E0868784E0878780898E7F808BC187A5
:100F0000D287A386B486818A928A038BC48AD58AC3
:100F1000E68AF78A86E9808F80E2D50111968C9364
:100F2000119780E411968C93119780E111968C9320
:100F3000188291E099838981806189839E838EEBF9
:100F400096E0818F928F83E097E0838F948F87E480
:100F500097E0858F968F85E896E0878F90A3A0EA2B
:100F6000B0E012968C911297816012968C93CF010B
:100F7000DF91CF910F91FF90EF90DF90CF90BF90D6
:100F8000AF909F908F900895EF92FF921F93CF9311
:100F9000DF93EB017A01122F82E190E00E94921020
:100FA000FC01E086F186C683D78383858E7F8387A5
:100FB0008AE590E0828393831482158210821182E5
:100FC0001287212F30E081E090E0AC0102C0440F95
:100FD000551F1A95E2F7D70112964C934981456047
:100FE0004983A98167E070E0621B730BAC0102C00A
:100FF000440F551F6A95E2F74A2B49834F812F5FB3
:101000003F4F02C0880F991F2A95E2F7842B8F83E8
:1010100080E49CE98EA39FA38FEE96E0848795875A
:101020008CE097E08687978781E397E0808B918BB0
:10103000A0EAB0E012968C911297826012968C937F
:10104000CF01DF91CF911F91FF90EF900895CF9244
:10105000DF92EF92FF921F93CF93DF93EC01162F55
:1010600089899A892B89289FB001299F700D1124A5
:1010700080E090E00E94970F2C893D894E895F891E
:101080000E9425106B017C01612F70E080E090E0F0
:101090000E94990F20E030E040E752E40E94EF0EFA
:1010A0009B01AC01C701B6010E9425100984DA85B5
:1010B000C02D20E030E040E851E40E9425109B0163
:1010C000AC0160E074E284EF9BE40E94EF0E20E04C
:1010D00030E040E85FE30E94820E0E94680F68A73C
:1010E00079A7DF91CF911F91FF90EF90DF90CF9084
:1010F00008950F931F93CF93DF93EC01042F122FCA
:101100000E942708EF8DF8A1BE01802F19958883D2
:1011100099831887DF91CF911F910F910895CF93F5
:10112000DF93EC01862FE889F989199588839983E3
:10113000DF91CF91089584E090E00E949210FC012D
:1011400010821182128213820895CF92DF92EF9261
:10115000FF920F93CF93DF930F2EC12CD12CF0E889
:10116000EF2EFFE3FF2EF02D00E128EC30E040EA07
:1011700056E060E47BE080918A2090918B200E9471
:101180005807EC0180938A2090938B20EF8DF8A173
:10119000BC018AE519958C839D83C0918A20D091EA
:1011A0008B20EF8DF8A1BE0186EA19958E839F836F
:1011B00028EC30E040E856E060E47AE080918C2052
:1011C00090918D200E945807EC0180938C20909381
:1011D0008D20EF8DF8A1BC018AE519958C839D8344
:1011E000C0918C20D0918D20EF8DF8A1BE0186EAB0
:1011F00019958E839F8328EC30E040E656E060E44A
:1012000079E080919220909193200E945807EC0100
:101210008093922090939320EF8DF8A1BC018AE5F2
:1012200019958C839D83C0919220D0919320EF8D4E
:10123000F8A1BE0186EA19958E839F8328EC30E0E1
:1012400040E456E060E478E0809186209091872029
:101250000E945807EC018093862090938720EF8DA1
:10126000F8A1BC018AE519958C839D83C0918620E5
:10127000D0918720EF8DF8A1BE0186EA19958E8363
:101280009F8320E040E456E060E078E080918E208B
:1012900090918F200E94C40780938E2090938F207E
:1012A00021E040E456E060E078E080919020909169
:1012B00091200E94C40780939020909391200E94D7
:1012C0009B088093882090938920DF91CF910F9184
:1012D000FF90EF90DF90CF900895CF93DF93EC01D4
:1012E00084E090E00E949210FC0110821182C2837F
:1012F000D383DF91CF9108951F93CF93DF93EC01B8
:10130000162F83E090E00E949210FC011083C183AD
:10131000D283DF91CF911F910895CF93DF93EC019A
:10132000CB01642F0E947C090E946D092A813B81B8
:10133000232B41F48A839B8388839983FC01108249
:10134000118207C028813981FC0120833183888381
:101350009983DF91CF910895FC0190819334E1F15D
:1013600028F4913469F0923409F10895943509F420
:1013700072C09A3509F446C0973409F07EC058C04F
:10138000238121704181628180918A2090918B20FC
:101390000E94790860918A2070918B2040E08091B2
:1013A0008820909189200E948D09089523812170C1
:1013B0004181628180918C2090918D200E947908DA
:1013C00060918C2070918D2040E0809188209091D8
:1013D00089200E948D0908952381217041816281B5
:1013E00080919220909193200E94790860919220A0
:1013F0007091932040E080918820909189200E94F4
:101400008D09089523812170418162818091862018
:10141000909187200E9479086091862070918720A2
:1014200040E080918820909189200E948D09089544
:10143000618180918E2090918F200E948F08609111
:101440008E2070918F2041E080918820909189209A
:101450000E948D0908956181809190209091912042
:101460000E948F08609190207091912041E08091BE
:101470008820909189200E948D090895EF92FF9213
:101480000F931F93CF93DF93DC0112962D913C9124
:101490001397232BD1F1EC0183E090E00E9492108E
:1014A0008C01E881F981A281B3818C91D8018C9360
:1014B000A281B38111968D919C911297D8011196BA
:1014C0008D939C931297E080F1800280F381E02D50
:1014D00011821282E881F981828193810E942A110E
:1014E000E881F98112821382E881F98110821182E8
:1014F000888199810E942A11E882F982EF2841F4BB
:101500001A821B82802F912F05C080E090E002C0DC
:10151000802F912FDF91CF911F910F91FF90EF902E
:101520000895CF93DF93E0918820F0918920828104
:101530009381892B71F1F89441E028C00E943E0A02
:10154000EC01888181110AC089819A81DC01599658
:10155000ED91FC915A9764E0199509C089819A81AF
:10156000DC011C96ED91FC911D9764E019951982A0
:101570001A82CE010E942A118091882090918920A0
:10158000FC012281338140E0232BC1F64111F4CFCD
:101590007894DF91CF910895F89481E029C08091EB
:1015A0008A2090918B20DC015D96ED91FC915E97F5
:1015B000199580918C2090918D20DC015D96ED91A4
:1015C000FC915E9719958091922090919320DC0177
:1015D0005D96ED91FC915E97199580918620909192
:1015E0008720DC015D96ED91FC915E97199580E076
:1015F0008111D5CF78940895F89481E03DC0809111
:101600008A2090918B20DC015B96ED91FC915C9798
:10161000199580918C2090918D20DC015B96ED9145
:10162000FC915C9719958091922090919320DC0118
:101630005B96ED91FC915C97199580918620909135
:101640008720DC015B96ED91FC915C971995809168
:101650008E2090918F20DC011E96ED91FC911F97BA
:1016600019958091902090919120DC011E96ED912A
:10167000FC911F97199580E08111C1CF789408954E
:101680000E94FC0A0E94CC0A0895FC0180858823F0
:1016900031F08281938101968283938305C0828198
:1016A0009381019782839383828193812081318109
:1016B0008217930751F0248135818217930728F40C
:1016C000268137812817390754F1CF01038CF48D17
:1016D000E02D1995E0918A20F0918B203089E091DE
:1016E0008C20F0918D2080898170E0919220F09182
:1016F000932090899170E0918620F0918720208935
:10170000217030FD0CC081110AC0911108C0211157
:1017100006C080911720909118200E946C0C0895AB
:101720001F920F920FB60F92112408B60F9218BE97
:1017300009B60F9219BE0BB60F921BBE2F933F93A3
:101740004F935F936F937F938F939F93AF93BF93C9
:10175000EF93FF9380918620909187200E94450B04
:10176000FF91EF91BF91AF919F918F917F916F9179
:101770005F914F913F912F910F900BBE0F9009BE3B
:101780000F9008BE0F900FBE0F901F9018951F92DC
:101790000F920FB60F92112408B60F9218BE09B619
:1017A0000F9219BE0BB60F921BBE2F933F934F9310
:1017B0005F936F937F938F939F93AF93BF93EF93B9
:1017C000FF9380919220909193200E94450BFF916E
:1017D000EF91BF91AF919F918F917F916F915F91A9
:1017E0004F913F912F910F900BBE0F9009BE0F901C
:1017F00008BE0F900FBE0F901F9018951F920F926A
:101800000FB60F92112408B60F9218BE09B60F92A8
:1018100019BE0BB60F921BBE2F933F934F935F934E
:101820006F937F938F939F93AF93BF93EF93FF93A8
:1018300080918C2090918D200E94450BFF91EF911B
:10184000BF91AF919F918F917F916F915F914F91D8
:101850003F912F910F900BBE0F9009BE0F9008BEC5
:101860000F900FBE0F901F9018951F920F920FB6FA
:101870000F92112408B60F9218BE09B60F9219BE26
:101880000BB60F921BBE2F933F934F935F936F93B3
:101890007F938F939F93AF93BF93EF93FF93809129
:1018A0008A2090918B200E94450BFF91EF91BF9170
:1018B000AF919F918F917F916F915F914F913F91E8
:1018C0002F910F900BBE0F9009BE0F9008BE0F9086
:1018D0000FBE0F901F90189527E0FC0120830895FC
:1018E000FC0110820895CF93DF93EC0182E090E039
:1018F0008EA39FA318A219A2CE010E94700C81E0B2
:101900008E83E0EAF0E0828181608283DF91CF9173
:101910000895CF93DF93FC0124813581232B79F047
:101920000E949301EC0105C0CE010E949F010E941C
:10193000AC098C819D81892BB9F781E001C080E0E1
:10194000DF91CF91089580911720909118200E94E7
:10195000730C80911720909118200E946C0C0895B0
:1019600080911720909118200E94700C0E94400BCB
:101970000895CF93DF93EB0120916E20211103C0D6
:101980000E94890C01C080E090916E20911102C0EC
:10199000882341F00E94910A81E080936F20809318
:1019A0006E2013C0811111C080916F20882349F0EF
:1019B00010926F200E947A028EE590E2FE01199546
:1019C00004C08AE590E2FE011995DF91CF91089558
:1019D0001F920F920FB60F92112408B60F9218BEE5
:1019E00009B60F9219BE0BB60F921BBE2F933F93F1
:1019F0004F935F936F937F938F939F93AF93BF9317
:101A0000EF93FF9380916C2090916D2081159D47FD
:101A100020F480916F20811114C010926E2080E01C
:101A20009BE00E94700C60EB73E0809170209091BD
:101A300071200E94B90C81E090E080936C2090931B
:101A40006D2080916C2090916D20019680936C2088
:101A500090936D20FF91EF91BF91AF919F918F91E6
:101A60007F916F915F914F913F912F910F900BBE9E
:101A70000F9009BE0F9008BE0F900FBE0F901F90E1
:101A800018951F93CF93DF93EC01142F0E94320E11
:101A900060E8CE010E94380E612FCE010E94380E00
:101AA00060E8CE010E94380E612FCE010E94380EF0
:101AB000CE010E943E0EDF91CF911F9108950F93AA
:101AC0001F93CF93DF93EC01142F022F0E94320E4D
:101AD00060E8CE010E94380E612FCE010E94380EC0
:101AE00060E8CE010E94380E612FCE010E94380EB0
:101AF000602FCE010E94380ECE010E943E0EDF9173
:101B0000CF911F910F910895CF93DF93EC0124E1C2
:101B10004DE868E70E945F0D4FEA68E7CE010E943A
:101B2000410DDF91CF910895CF93DF93EC0123E036
:101B30004AED68E70E945F0D48EC68E7CE010E941D
:101B4000410D22E040E268E7CE010E945F0D40EBCC
:101B500068E7CE010E94410D40E068E7CE010E9497
:101B6000410D40E168E7CE010E94410D40E468E785
:101B7000CE010E94410D41EA68E7CE010E94410D6D
:101B8000CE010E94840DDF91CF9108951F93CF93D2
:101B9000DF93EC01142F0E94320E60ECCE010E9404
:101BA000380E612FCE010E94380ECE010E943E0EEB
:101BB000DF91CF911F9108950F931F93CF938C01C5
:101BC000C62F405568E70E94410D4C2F4F7068E7C3
:101BD000C8010E94410D4C2F42954F70405F68E74D
:101BE000C8010E94410DCF911F910F910895CF928E
:101BF000DF92FF920F931F93CF93DF938C01F62E0A
:101C0000C12CD12C14C04C2D60E0C8010E94DC0D09
:101C1000C0E0D0E006C04F2D68E7C8010E94C60DA5
:101C20002196C038D105B8F38FEFC81AD80A88E0DA
:101C3000C816D10440F3DF91CF911F910F91FF900F
:101C4000DF90CF900895FC0165838281816082835B
:101C50008181886081838181806C818384818160BE
:101C600084830895FC016683948195FFFDCF0895D8
:101C7000FC016783948195FFFDCF0895FC0193815A
:101C80009360938308950E94750E63E280911920FA
:101C900090911A200E94230E8091192090911A2071
:101CA0000E94940D6AEA8091192090911A200E9456
:101CB000F70D0E94A5080E94680180937020909300
:101CC000712080916420909165200E9491048093FE
:101CD0006420909365207894E0916420F0916520D1
:101CE0000480F581E02D1995F7CF82E080935000B4
:101CF0008091510081FFFCCF88ED84BF81E080930B
:101D0000400008955058BB27AA270E949A0E0C94B1
:101D1000EB0F0E94DD0F38F00E94E40F20F039F441
:101D20009F3F19F426F40C94DA0F0EF4E095E7FBCC
:101D30000C94D40FE92F0E94FC0F58F3BA176207D6
:101D400073078407950720F079F4A6F50C941E100C
:101D50000EF4E0950B2EBA2FA02D0B01B9019001C6
:101D60000C01CA01A0011124FF27591B99F0593F0A
:101D700050F4503E68F11A16F040A22F232F342F52
:101D80004427585FF3CF469537952795A795F040A0
:101D90005395C9F77EF41F16BA0B620B730B840BB5
:101DA000BAF09150A1F0FF0FBB1F661F771F881F6D
:101DB000C2F70EC0BA0F621F731F841F48F48795C5
:101DC00077956795B795F7959E3F08F0B0CF9395B7
:101DD000880F08F09927EE0F9795879508950E9430
:101DE000030F0C94EB0F0E94E40F58F00E94DD0FDC
:101DF00040F029F45F3F29F00C94D40F51110C945A
:101E00001F100C94DA0F0E94FC0F68F39923B1F3B2
:101E1000552391F3951B550BBB27AA276217730710
:101E2000840738F09F5F5F4F220F331F441FAA1FA4
:101E3000A9F335D00E2E3AF0E0E832D09150504060
:101E4000E695001CCAF72BD0FE2F29D0660F771F0E
:101E5000881FBB1F261737074807AB07B0E809F0F4
:101E6000BB0B802DBF01FF2793585F4F3AF09E3F79
:101E7000510578F00C94D40F0C941F105F3FE4F3DD
:101E8000983ED4F3869577956795B795F7959F5FBC
:101E9000C9F7880F911D9695879597F90895E1E008
:101EA000660F771F881FBB1F621773078407BA0767
:101EB00020F0621B730B840BBA0BEE1F88F7E095C2
:101EC00008950E94680F6894B1110C941F10089532
:101ED0000E94041088F09F5798F0B92F9927B751A6
:101EE000B0F0E1F0660F771F881F991F1AF0BA95BE
:101EF000C9F714C0B13091F00E941E10B1E00895EE
:101F00000C941E10672F782F8827B85F39F0B93FDF
:101F1000CCF3869577956795B395D9F73EF4909570
:101F20008095709561957F4F8F4F9F4F0895E894EE
:101F300009C097FB3EF490958095709561957F4F11
:101F40008F4F9F4F9923A9F0F92F96E9BB279395BF
:101F5000F695879577956795B795F111F8CFFAF4CF
:101F6000BB0F11F460FF1BC06F5F7F4F8F4F9F4F00
:101F700016C0882311F096E911C0772321F09EE85E
:101F8000872F762F05C0662371F096E8862F70E0C4
:101F900060E02AF09A95660F771F881FDAF7880F9E
:101FA0009695879597F9089597F99F6780E870E06F
:101FB00060E008959FEF80EC089500240A941616BF
:101FC000170618060906089500240A941216130627
:101FD000140605060895092E0394000C11F48823B5
:101FE00052F0BB0F40F4BF2B11F460FF04C06F5FD1
:101FF0007F4F8F4F9F4F089557FD9058440F551FA7
:1020000059F05F3F71F04795880F97FB991F61F07A
:102010009F3F79F087950895121613061406551FF1
:10202000F2CF4695F1DF08C0161617061806991F5D
:10203000F1CF86957105610508940895E894BB2752
:1020400066277727CB0197F908950E9438100C94E2
:10205000EB0F0E94DD0F38F00E94E40F20F0952373
:1020600011F00C94D40F0C94DA0F11240C941F105F
:102070000E94FC0F70F3959FC1F3950F50E0551F20
:10208000629FF001729FBB27F00DB11D639FAA27CD
:10209000F00DB11DAA1F649F6627B00DA11D661F1C
:1020A000829F2227B00DA11D621F739FB00DA11D3D
:1020B000621F839FA00D611D221F749F3327A00DF7
:1020C000611D231F849F600D211D822F762F6A2F93
:1020D00011249F5750409AF0F1F088234AF0EE0FF8
:1020E000FF1FBB1F661F771F881F91505040A9F725
:1020F0009E3F510580F00C94D40F0C941F105F3F4D
:10210000E4F3983ED4F3869577956795B795F79560
:10211000E7959F5FC1F7FE2B880F911D96958795D8
:1021200097F908950F931F93CF93DF938230910512
:1021300010F482E090E0E0919620F091972020E06A
:1021400030E0A0E0B0E0309719F140815181028188
:10215000138148175907C8F08417950769F4109739
:1021600031F012960C93129713961C9327C000938C
:1021700096201093972022C02115310519F042179F
:10218000530718F49A01BD01EF01DF01F801DBCF1D
:1021900021153105F9F0281B390B2430310580F465
:1021A0008A819B816115710521F0FB0182839383F4
:1021B00004C08093962090939720FE01329644C0ED
:1021C000FE01E20FF31F819391932250310928837E
:1021D00039833AC02091942030919520232B41F4EB
:1021E0002091022030910320209394203093952059
:1021F00020910020309101202115310541F42DB7A7
:102200003EB74091042050910520241B350BE091EE
:102210009420F0919520E217F307A0F42E1B3F0BBA
:102220002817390778F0AC014E5F5F4F2417350748
:1022300048F04E0F5F1F4093942050939520819358
:10224000919302C0E0E0F0E0CF01DF91CF911F91C8
:102250000F910895CF93DF93009709F481C0FC019B
:10226000329712821382A0919620B09197201097F6
:1022700081F420813181820F931F2091942030912D
:1022800095202817390751F5E0939420F093952075
:1022900067C0ED0120E030E0CE17DF0740F44A814F
:1022A0005B819E0141155105F1F0EA01F5CFC28332
:1022B000D38340815181840F951FC817D90759F4E2
:1022C00088819981840F951F0296808391838A81EA
:1022D0009B81828393832115310529F4E093962015
:1022E000F09397203DC0E901EA83FB83499159911E
:1022F000C40FD51FEC17FD0761F480819181840F15
:10230000951F0296E90188839983828193818A834C
:102310009B83E0E0F0E012968D919C9113970097DB
:1023200019F0FD01DC01F7CF8D919C9111979D0172
:102330002E5F3F4F820F931F209194203091952064
:102340002817390769F4309729F4109296201092D3
:10235000972002C012821382A0939420B0939520FC
:10236000DF91CF910895FC0188279927E894219166
:102370002032E9F3293010F02E30C8F32B3241F02F
:102380002D3239F4689404C00E94E611820F911D29
:10239000219120532A30C0F31EF4909581959F4FD0
:1023A0000895FB01DC0101900D920020E1F70895F2
:1023B000FB01DC014150504030F08D9101908019BB
:1023C00019F40020B9F7881B990B08957AE0979FBC
:1023D000902D879F802D910D11240895F894FFCFA3
:1023E000000098202000011B202220282027202EDA
:1023F000202D2032203520000B80045354415455A9
:1024000053004D4F564500455441534B00454A4FEC
:10241000420045460053460053460A005354415477
:1024200055530A00300A0045460A00310A00320AB4
:1024300000330A00340A00350A0039390A00360A26
:0224400000009A
:00000001FF
