S0140000526F626F7441726D546573742E737265634A
S11300000C94FE000C941B010C941B010C941B011A
S11300100C941B010C941B010C941B010C941B01EC
S11300200C941B010C941B010C941B010C941B01DC
S11300300C941B010C941B010C941B010C941B01CC
S11300400C941B010C941B010C941B010C941B01BC
S11300500C94DA0A0C941B010C941B010C941B01E4
S11300600C941B010C941B010C941B010C941B019C
S11300700C941B010C941B010C941B010C941B018C
S11300800C941B010C941B010C941B010C941B017C
S11300900C941B010C941B010C941B010C941B016C
S11300A00C941B010C941B010C941B010C941B015C
S11300B00C941B010C941B010C941B010C941B014C
S11300C00C941B010C941B010C941B010C941B013C
S11300D00C941B010C941B010C941B010C941B012C
S11300E00C941B010C941B010C941B010C941B011C
S11300F00C941B010C941B010C941B010C941B010C
S11301000C941B010C941B010C941B010C941B01FB
S11301100C941B010C941B010C941B010C941B01EB
S11301200C941B010C941B010C941B010C941B01DB
S11301300C941B010C941B010C941B010C941B01CB
S11301400C941B010C941B010C941B010C94020BCA
S11301500C941B010C941B010C941B010C941B01AB
S11301600C941B010C941B010C941B010C94D305DF
S11301700C9499050C941B010C941B010C941B0109
S11301800C941B010C941B010C941B010C941B017B
S11301900C941B010C941B010C941B010C941B016B
S11301A00C941B010C941B010C941B010C941B015B
S11301B00C941B010C941B010C941B010C941B014B
S11301C00C941B010C941B010C941B010C941B013B
S11301D00C941B010C941B010C941B010C941B012B
S11301E00C941B010C941B010C941B010C941B011B
S11301F00C941B010C941B010C941B0111241FBEB5
S1130200CFEFCDBFD7E2DEBF10E2A0E0B0E2E2EC78
S1130210FDE102C005900D92AC35B107D9F720E29B
S1130220ACE5B0E201C01D92AF39B207E1F70E941C
S1130230480B0C94DF0E0C9400000F931F93CF9384
S1130240DF93082F162FD42FC22F84E090E00E9452
S1130250830DFC0100831183D2838381C0FB80F969
S11302608383CF01DF91CF911F910F9108950F9355
S11302701F93CF93DF938C01EB0184E090E00E9405
S1130280830DFC0102831383C083D183DF91CF915B
S11302901F910F91089587E090E00E94830DFC0167
S11302A0168214821582108211821282138208959A
S11302B0FC0182819381892B51F462837383DB0176
S11302C01D921C92828193818083918307C08081D7
S11302D09181DB018D939C936083718380819181F3
S11302E08483958386818F5F86830895FC01A4812E
S11302F0B58112968D919C9113972D913C912483F5
S113030035830895FC01A481B58112968D919C9149
S113031013972D913C91248335830895EF92FF9296
S11303200F931F93CF93DF93EC018B01E880F98047
S11303300E944B01B7010E943701BC01CE010E940B
S11303405801D8011A968D919C911B970E94A40E76
S1130350E82EF801808591850E94A40EF82ED8011C
S113036016968D919C9117970E94A40ED80114960D
S1130370ED91FC9115972E2D4F2D682F80810E94B1
S11303801D0160E070E00E943701E881F981BC0141
S1130390828193810E9458018E818330A8F0CE011E
S11303A00E942A0B809307200E94000ACE010E941B
S11303B02A0B809307200E94000ACE010E942A0B78
S11303C0809307200E94000ADF91CF911F910F9123
S11303D0FF90EF900895BF92CF92DF92EF92FF9239
S11303E00F931F93CF93DF937C01EB01B42EDC01B9
S11303F0CD90DC90F6010281138180910620882340
S113040081F00E944B01B6010E943701BC01C70173
S11304100E945801D701ED91FC9102811381109241
S11304200620F801E080F1808A859B850E94A40E55
S1130430C82E888599850E94A40ED82E8E819F810E
S11304400E94A40EEC81FD812C2D4D2D682F8081FE
S11304500E941D01B7010E943701BC01C8010E941E
S11304605801BB2019F081E080930620DF91CF91E1
S11304701F910F91FF90EF90DF90CF90BF90089560
S1130480CF93DF9380E190E00E94830DEC0180E143
S113049090E00E94830D88839983FC01108280E19F
S11304A090E00E94830D8A839B83FC01108280E18B
S11304B090E00E94830D8C839D83FC01108280E177
S11304C090E00E94830D8E839F83FC01108280E163
S11304D090E00E94830D88879987FC01108280E157
S11304E090E00E94830D8A879B87FC01108280E143
S11304F090E00E94830D8E879F87FC011082CE01BD
S1130500DF91CF9108950F931F93CF93DF938C01C5
S1130510EB010E94BA04BC01888199810E94C20E39
S11305206881798142E050E08091162090911720F3
S11305300E94C90E892B09F04EC0C8010E94BA045A
S1130540BC018A819B810E94C20EC8010E94BA0428
S1130550BC018C819D810E94C20EC8010E94BA0414
S1130560BC018E819F810E94C20EC8010E94BA0400
S1130570BC01888599850E94C20EC8010E94BA04F4
S1130580BC018A859B850E94C20EC8010E94BA04E0
S1130590BC018C859D850E94C20EC8010E94BA04CC
S11305A0BC018E859F850E94C20E6E857F8542E0C8
S11305B050E080911420909115200E94C90E892B3F
S11305C029F4C8010E94F00481E009C0C8010E9416
S11305D0F00480E004C0C8010E94F00480E0DF91D0
S11305E0CF911F910F910895CF93DF93FC01C281A6
S11305F0D38143E050E0BE018091122090911320FA
S11306000E94C90E892B71F143E050E0BE01809134
S11306101020909111200E94C90E892B29F143E0EA
S113062050E0BE0180910E2090910F200E94C90ECF
S1130630892BE1F043E050E0BE0180910C209091C1
S11306400D200E94C90E892B99F043E050E0BE01B1
S113065080910A2090910B200E94C90E892B51F49D
S113066082E009C086E007C085E005C084E003C0DD
S113067083E001C081E0DF91CF910895FC01808186
S1130680813331F0823331F0833331F483E00895E0
S113069081E0089582E0089583E608950E94570555
S11306A00895CF93DF93EC0185E390E20E94570510
S11306B08FEB9AED0197F1F700C0000089E390E217
S11306C00E9457059FEF28EA81E091502040804026
S11306D0E1F700C00000CE010E9457058FEB9AEDB0
S11306E00197F1F700C0000081E490E20E945705F1
S11306F08FEB9AED0197F1F700C0000081E490E2DE
S11307000E9457058FEB9AED0197F1F700C00000A6
S113071081E490E20E9457058FEB9AED0197F1F77F
S113072000C0000081E490E20E9457058FEB9AED2F
S11307300197F1F700C0000084E490E20E9457059D
S11307408FEB9AED0197F1F700C0000081E0DF9193
S1130750CF910895E0916020F0916120858980FF18
S113076080C060915C2070915D20CF010E94830263
S1130770882309F472C080915C2090915D200E94CE
S1130780F4028330E1F128F4813061F0823041F1E8
S11307900895853009F453C008F441C0863009F443
S11307A055C00895E0915C20F0915D20848195818D
S11307B00E943E03823051F0833069F0813009F0A9
S11307C050C088E490E20E94510308958BE490E2C3
S11307D00E94510308958EE490E20E94510308950B
S11307E060915C2070915D208091672090916820D9
S11307F00E948E0188E490E20E9451030895609162
S11308005C2070915D2040E0809167209091682089
S11308100E94EB0188E490E20E94510308956091E4
S11308205C2070915D2041E0809167209091682068
S11308300E94EB0188E490E20E945103089581E54F
S113084090E20E9451030E94440B089584E590E2D3
S11308500E9451030E94450B089587E590E20E948F
S113086051030895CF93DF9386E090E00E94830DB7
S1130870EC0160E180916020909161200E94660407
S1130880809360209093612026E047E060E676E064
S113089080EB99E00E94100580915C2090915D208E
S11308A00E94400280935C2090935D208AEA93E04A
S11308B08C839D838EE493E08883998381E593E020
S11308C08A839B83CE01DF91CF910895EF92FF92AB
S11308D00F931F93CF93DF93062F86E190E00E943E
S11308E0830D7C0110E00FC0C12FD0E0802F90E079
S11308F00E94830DCC0FDD1FCE0DDF1D88839983ED
S1130900FC0110821F5F193078F3802F90E00E9461
S1130910830DF701828B938BFC011082F701148AFB
S113092085898E7F8260858BC701DF91CF911F916E
S11309300F91FF90EF900895CF93DF93EC01EC8932
S1130940E93060F481E08E0F8C8BF0E0EE0FFF1F36
S1130950EC0FFD1F808191810E94C20E8D898D7FD5
S11309608D8B8C89883019F48D8981608D8BDF9112
S1130970CF9108951F93CF93DF93EC016881798120
S11309808A899B890E94C20E10E014C0812F90E0D6
S1130990FC013196EE0FFF1FEC0FFD1F608171818A
S11309A0880F991FFE01E80FF91F808191810E9431
S11309B0C20E1F5F8C89181748F3882311F08150E9
S11309C08C8B8D898E7F8D8B8C89811103C08D8951
S11309D082608D8B8A899B89DF91CF911F910895C5
S11309E0DC0190E00BC0E92FF0E0EE0FFF1FEA0FEF
S11309F0FB1F0190F081E02D10829F5F993098F3E6
S1130A005296ED91FC915397108254961C925497F0
S1130A1055968C9155978E7F826055968C93089548
S1130A20FB01809364209093652081E090E0BC01F9
S1130A3002C0660F771F4A95E2F76583618302C09F
S1130A40880F991F2A95E2F78283E0916420F09140
S1130A5065208CE0868380E4878383E0858380E25D
S1130A608383A0EAB0E012968C911297826012966A
S1130A708C9384818861848380E006C0E82FF0E051
S1130A80E558FF4D10828F5F8031C0F380E190E024
S1130A900E94830D80938B2090938C2080E190E0C2
S1130AA00E94830D8093792090937A200895BC014D
S1130AB08091792090917A200E94C20EE091642066
S1130AC0F0916520838182608383089590EE980F6E
S1130AD09F3550F4E091632091E09E0F9093632042
S1130AE0F0E0E558FF4D80838D3031F0882321F00C
S1130AF0809163208D30D0F0A0916320E1E0EA0F73
S1130B00B0E0A558BF4D8AE08C9381E08E0FF0E0F1
S1130B10E558FF4D9DE09083E82FF0E0E558FF4D48
S1130B201082109263208BE790E2089580E090E0B9
S1130B3008951F920F920FB60F9211248F939F93D3
S1130B40EF93FF9390916220E0917920F0917A20C5
S1130B50E90FF11D8081882331F0803298F48A30C6
S1130B6089F08D3079F0E0916420F0916520108255
S1130B70E0916420F091652083818D7F83831092BE
S1130B80622008C0E0916420F09165209F5F9093FB
S1130B9062208083FF91EF919F918F910F900FBE00
S1130BA00F901F9018951F920F920FB60F92112459
S1130BB02F933F934F935F936F937F938F939F9361
S1130BC0AF93BF93EF93FF93E0916420F09165207E
S1130BD080810E94660580938B2090938C200097DF
S1130BE059F0BC0180916020909161200E949C0486
S1130BF010928B2010928C20FF91EF91BF91AF91B6
S1130C009F918F917F916F915F914F913F912F9120
S1130C100F900FBE0F901F901895CF92DF92EF9216
S1130C20FF921F93CF93DF93182FEB0189899A8941
S1130C302B89289FB001299F700D112480E090E03A
S1130C400E94880C2C893D894E895F890E94160D6B
S1130C5020E030E044EB53E40E94E00B6B017C01A4
S1130C60612F110F770B880B990B0E948A0CA70137
S1130C7096010E94160D0E94520CCB01DF91CF9178
S1130C801F91FF90EF90DF90CF900895FC01808931
S1130C908160808BA385B48581E090E0058402C0E7
S1130CA0880F991F0A94E2F715968C938085882300
S1130CB069F0A385B48581E090E0068402C0880FC2
S1130CC0991F0A94E2F715968C930CC0A385B485FA
S1130CD081E090E0068402C0880F991F0A94E2F72D
S1130CE016968C930184F285E02D60830895FC01AF
S1130CF0A681B7816C93838581608387A085B18544
S1130D0081E090E0028402C0880F991F0A94E2F700
S1130D1011968C930895FC0180898E7F808B0184C9
S1130D20F285E02D10820895FC0183858E7F8387F0
S1130D30A085B18581E090E0028402C0880F991FEC
S1130D400A94E2F712968C93A0919720B091982080
S1130D501B968C9180FD0CC0A0919520B09196209B
S1130D601B968C9180FD04C00680F781E02D1082D3
S1130D700895682F70E080E090E00E948A0C2DE3D3
S1130D803AE047E951E40E94160D20E030EC4FE0D0
S1130D9055E40E94740B0E94590CCB010895DC01A8
S1130DA01B96ED91FC911C9721E030E0A9011D9662
S1130DB00C9002C0440F551F0A94E2F7468308952D
S1130DC08F929F92AF92BF92CF92DF92EF92FF9257
S1130DD00F93CF93DF93EB015A01490181E290E035
S1130DE00E94830DFC011282138285E590E08083CA
S1130DF091831482158216821782108686E0858775
S1130E0085E0868784E0878780898E7F808BC18791
S1130E10D287A386B486818A928A038BC48AD58AB0
S1130E20E68AF78A86E9808F80E2D50111968C9351
S1130E30119780E411968C93119780E111968C930D
S1130E40188291E099838981806189839E8386E4F5
S1130E5096E0818F928F8BE896E0838F948F8FEC4E
S1130E6096E0858F968F8DE096E0878F90A3A0EA19
S1130E70B0E012968C911297816012968C93CF01F8
S1130E80DF91CF910F91FF90EF90DF90CF90BF90C3
S1130E90AF909F908F900895EF92FF921F93CF93FE
S1130EA0DF93EB017A01122F82E190E00E94830D1F
S1130EB0FC01E086F186C683D78383858E7F838792
S1130EC08AE590E0828393831482158210821182D2
S1130ED01287212F30E081E090E0AC0102C0440F82
S1130EE0551F1A95E2F7D70112964C934981456034
S1130EF04983A98167E070E0621B730BAC0102C0F7
S1130F00440F551F6A95E2F74A2B49834F812F5F9F
S1130F103F4F02C0880F991F2A95E2F7842B8F83D5
S1130F2080E49CE98EA39FA387E796E08487958756
S1130F3084E996E08687978789EB96E0808B918B8E
S1130F40A0EAB0E012968C911297826012968C936C
S1130F50CF01DF91CF911F91FF90EF900895CF9231
S1130F60DF92EF92FF921F93CF93DF93EC01162F42
S1130F7089899A892B89289FB001299F700D112492
S1130F8080E090E00E94880C2C893D894E895F891D
S1130F900E94160D6B017C01612F70E080E090E0EF
S1130FA00E948A0C20E030E040E752E40E94E00B0B
S1130FB09B01AC01C701B6010E94160D0984DA85B4
S1130FC0C02D20E030E040E851E40E94160D9B0162
S1130FD0AC0160E074E284EF9BE40E94E00B20E04B
S1130FE030E040E85FE30E94730B0E94590C68A74D
S1130FF079A7DF91CF911F91FF90EF90DF90CF9071
S113100008950F931F93CF93DF93EC01042F122FB6
S11310100E94AF07EF8DF8A1BE01802F0995888348
S113102099831887DF91CF911F910F910895CF93E2
S1131030DF93EC01862FE889F989099588839983E0
S1131040DF91CF91089584E090E00E94830DFC012C
S113105010821182128213820895CF92DF92EF924E
S1131060FF920F93CF93DF930F2EC12CD12CF0E876
S1131070EF2EFFE3FF2EF02D00E128EC30E040E6F8
S113108056E060E479E08091992090919A200E9442
S1131090E006EC018093992090939A20EF8DF8A1BB
S11310A0BC018AE509958C839D83C0919920D091D8
S11310B09A20EF8DF8A1BE0186EA09958E839F835D
S11310C028EC30E040E456E060E478E080918D2044
S11310D090918E200E94E006EC0180938D209093E5
S11310E08E20EF8DF8A1BC018AE509958C839D8340
S11310F0C0918D20D0918E20EF8DF8A1BE0186EA9B
S113110009958E839F8320E040E456E060E078E018
S113111080919520909196200E944C078093952071
S11311209093962021E040E456E060E078E08091DE
S11311309720909198200E944C0780939720909339
S113114098200E94230880938F2090939020DF9111
S1131150CF910F91FF90EF90DF90CF900895CF93B0
S1131160DF93EC0184E090E00E94830DFC01108287
S11311701182C283D383DF91CF9108951F93CF93BC
S1131180DF93EC01162F83E090E00E94830DFC01B5
S11311901083C183D283DF91CF911F910895CF93A0
S11311A0DF93EC01CB01642F0E94BE080E94AF08BC
S11311B02A813B81232B41F48A839B8388839983EF
S11311C0FC011082118207C028813981FC0120832F
S11311D0318388839983DF91CF910895DC01E09175
S11311E0662081E08E0F80936620F0E0EE0FFF1FF3
S11311F0EE0FFF1FE759FF4D4D915D916D917C916D
S1131200139740835183628373838C91833409F4ED
S113121046C028F4813469F0823431F1089584356C
S113122009F487C08A3509F455C0873409F094C09D
S11312306CC013962C911397217011964C911197B1
S113124012966C9180919120909192200E940108B5
S1131250609191207091922040E080918F20909134
S113126090200E94CF08089513962C911397217013
S113127011964C91119712966C91809193209091B4
S113128094200E940108609193207091942040E082
S113129080918F20909190200E94CF0808951396FA
S11312A02C911397217011964C91119712966C9171
S11312B08091992090919A200E9401086091992030
S11312C070919A2040E080918F20909190200E940C
S11312D0CF08089513962C911397217011964C9171
S11312E0119712966C9180918D2090918E200E947E
S11312F0010860918D2070918E2040E080918F20B4
S1131300909190200E94CF08089511966C9180913D
S11313109520909196200E941708609195207091D5
S1131320962041E080918F20909190200E94CF08D8
S1131330089511966C9180919720909198200E9425
S11313401708609197207091982041E080918F2038
S1131350909190200E94CF080895EF92FF920F93EE
S11313601F93CF93DF93DC0112962D913C91139739
S1131370232BD1F1EC0183E090E00E94830D8C01DA
S1131380E881F981A281B3818C91D8018C93A281E7
S1131390B38111968D919C911297D80111968D93DA
S11313A09C931297E080F1800280F381E02D1182FA
S11313B01282E881F981828193810E941B0EE88167
S11313C0F98112821382E881F98110821182888165
S11313D099810E941B0EE882F982EF2841F41A8257
S11313E01B82802F912F05C080E090E002C0802FE7
S11313F0912FDF91CF911F910F91FF90EF9008955E
S1131400CF93DF93E0918F20F0919020828193819C
S1131410892B71F1F89441E028C00E94AD09EC01D8
S1131420888181110AC089819A81DC015996ED91E4
S1131430FC915A9764E0099509C089819A81DC017D
S11314401C96ED91FC911D9764E0099519821A820E
S1131450CE010E941B0E80918F2090919020FC0160
S11314602281338140E0232BC1F64111F4CF7894DB
S1131470DF91CF910895F89481E029C08091912063
S113148090919220DC015D96ED91FC915E97099517
S11314908091932090919420DC015D96ED91FC91D4
S11314A05E9709958091992090919A20DC015D9630
S11314B0ED91FC915E97099580918D2090918E20FD
S11314C0DC015D96ED91FC915E97099580E08111B8
S11314D0D5CF78940895F89481E03DC0809191200F
S11314E090919220DC015B96ED91FC915C970995BB
S11314F08091932090919420DC015B96ED91FC9176
S11315005C9709958091992090919A20DC015B96D3
S1131510ED91FC915C97099580918D2090918E209E
S1131520DC015B96ED91FC915C9709958091952087
S113153090919620DC011E96ED91FC911F970995E0
S11315408091972090919820DC011E96ED91FC915A
S11315501F97099580E08111C1CF789408950E9466
S11315606B0A0E943B0A0895FC018085882331F0B0
S11315708281938101968283938305C082819381C2
S113158001978283938382819381208131818217A1
S1131590930751F0248135818217930728F426811B
S11315A03781281739072CF0CF01038CF48DE02DF7
S11315B0099508951F920F920FB60F9211242F933D
S11315C03F934F935F936F937F938F939F93AF93C7
S11315D0BF93EF93FF9380918D2090918E200E9472
S11315E0B40AFF91EF91BF91AF919F918F917F9139
S11315F06F915F914F913F912F910F900FBE0F907C
S11316001F9018951F920F920FB60F9211242F93CB
S11316103F934F935F936F937F938F939F93AF9376
S1131620BF93EF93FF938091992090919A200E9409
S1131630B40AFF91EF91BF91AF919F918F917F91E8
S11316406F915F914F913F912F910F900FBE0F902B
S11316501F901895CF93DF93FC0124813581232BB0
S113166079F00E947601EC0105C0CE010E9482014E
S11316700E94EE088C819D81892BB9F781E001C01D
S113168080E0DF91CF91089508950E94AF0A0895F4
S11316900E94660B0E942D080E944B0180936720D4
S11316A09093682080915E2090915F200E94320484
S11316B080935E2090935F207894E0915E20F09177
S11316C05F200480F581E02D0995F7CF82E08093B7
S11316D050008091510081FFFCCF88ED84BF81E0F0
S11316E08093400008955058BB27AA270E948B0B73
S11316F00C94DC0C0E94CE0C38F00E94D50C20F027
S113170039F49F3F19F426F40C94CB0C0EF4E095B5
S1131710E7FB0C94C50CE92F0E94ED0C58F3BA17A3
S1131720620773078407950720F079F4A6F50C94F3
S11317300F0D0EF4E0950B2EBA2FA02D0B01B9015D
S113174090010C01CA01A0011124FF27591B99F033
S1131750593F50F4503E68F11A16F040A22F232F3F
S1131760342F4427585FF3CF469537952795A7958F
S1131770F0405395C9F77EF41F16BA0B620B730B36
S1131780840BBAF09150A1F0FF0FBB1F661F771FA7
S1131790881FC2F70EC0BA0F621F731F841F48F45C
S11317A0879577956795B795F7959E3F08F0B0CFE5
S11317B09395880F08F09927EE0F979587950895CC
S11317C00E94F40B0C94DC0C0E94D50C58F00E947F
S11317D0CE0C40F029F45F3F29F00C94C50C511154
S11317E00C94100D0C94CB0C0E94ED0C68F399230F
S11317F0B1F3552391F3951B550BBB27AA27621709
S11318007307840738F09F5F5F4F220F331F441F15
S1131810AA1FA9F335D00E2E3AF0E0E832D0915049
S11318205040E695001CCAF72BD0FE2F29D0660F36
S1131830771F881FBB1F261737074807AB07B0E879
S113184009F0BB0B802DBF01FF2793585F4F3AF07F
S11318509E3F510578F00C94C50C0C94100D5F3F1D
S1131860E4F3983ED4F3869577956795B795F79505
S11318709F5FC9F7880F911D9695879597F90895ED
S1131880E1E0660F771F881FBB1F62177307840789
S1131890BA0720F0621B730B840BBA0BEE1F88F798
S11318A0E09508950E94590C6894B1110C94100DA0
S11318B008950E94F50C88F09F5798F0B92F992746
S11318C0B751B0F0E1F0660F771F881F991F1AF027
S11318D0BA95C9F714C0B13091F00E940F0DB1E070
S11318E008950C940F0D672F782F8827B85F39F06F
S11318F0B93FCCF3869577956795B395D9F73EF4C0
S113190090958095709561957F4F8F4F9F4F089567
S1131910E89409C097FB3EF4909580957095619585
S11319207F4F8F4F9F4F9923A9F0F92F96E9BB273B
S11319309395F695879577956795B795F111F8CFB7
S1131940FAF4BB0F11F460FF1BC06F5F7F4F8F4F22
S11319509F4F16C0882311F096E911C0772321F018
S11319609EE8872F762F05C0662371F096E8862FB0
S113197070E060E02AF09A95660F771F881FDAF707
S1131980880F9695879597F9089597F99F6780E84A
S113199070E060E008959FEF80EC089500240A94BD
S11319A01616170618060906089500240A94121636
S11319B01306140605060895092E0394000C11F469
S11319C0882352F0BB0F40F4BF2B11F460FF04C016
S11319D06F5F7F4F8F4F9F4F089557FD9058440F6F
S11319E0551F59F05F3F71F04795880F97FB991F7A
S11319F061F09F3F79F08795089512161306140637
S1131A00551FF2CF4695F1DF08C0161617061806C3
S1131A10991FF1CF86957105610508940895E8949E
S1131A20BB2766277727CB0197F908950E94290DD4
S1131A300C94DC0C0E94CE0C38F00E94D50C20F0E3
S1131A40952311F00C94C50C0C94CB0C11240C941C
S1131A50100D0E94ED0C70F3959FC1F3950F50E0AB
S1131A60551F629FF001729FBB27F00DB11D639F4C
S1131A70AA27F00DB11DAA1F649F6627B00DA11DF2
S1131A80661F829F2227B00DA11D621F739FB00D98
S1131A90A11D621F839FA00D611D221F749F332708
S1131AA0A00D611D231F849F600D211D822F762FA1
S1131AB06A2F11249F5750409AF0F1F088234AF07E
S1131AC0EE0FFF1FBB1F661F771F881F91505040EA
S1131AD0A9F79E3F510580F00C94C50C0C94100D91
S1131AE05F3FE4F3983ED4F3869577956795B79571
S1131AF0F795E7959F5FC1F7FE2B880F911D96958B
S1131B00879597F908950F931F93CF93DF938230AE
S1131B10910510F482E090E0E0919D20F0919E20E8
S1131B2020E030E0A0E0B0E0309719F1408151812D
S1131B300281138148175907C8F08417950769F47F
S1131B40109731F012960C93129713961C9327C09A
S1131B5000939D2010939E2022C02115310519F079
S1131B604217530718F49A01BD01EF01DF01F80190
S1131B70DBCF21153105F9F0281B390B2430310551
S1131B8080F48A819B816115710521F0FB018283B8
S1131B90938304C080939D2090939E20FE013296EF
S1131BA044C0FE01E20FF31F819391932250310947
S1131BB0288339833AC020919B2030919C20232B89
S1131BC041F4209102203091032020939B203093F4
S1131BD09C2020910020309101202115310541F4F1
S1131BE02DB73EB74091042050910520241B350B9E
S1131BF0E0919B20F0919C20E217F307A0F42E1BA8
S1131C003F0B2817390778F0AC014E5F5F4F24175C
S1131C10350748F04E0F5F1F40939B2050939C2044
S1131C208193919302C0E0E0F0E0CF01DF91CF9186
S1131C301F910F910895CF93DF93009709F481C00A
S1131C40FC01329712821382A0919D20B0919E20B4
S1131C50109781F420813181820F931F20919B2062
S1131C6030919C202817390751F5E0939B20F0937D
S1131C709C2067C0ED0120E030E0CE17DF0740F480
S1131C804A815B819E0141155105F1F0EA01F5CFCE
S1131C90C283D38340815181840F951FC817D9070C
S1131CA059F488819981840F951F029680839183CA
S1131CB08A819B81828393832115310529F4E093E2
S1131CC09D20F0939E203DC0E901EA83FB83499166
S1131CD05991C40FD51FEC17FD0761F480819181E0
S1131CE0840F951F0296E9018883998382819381E9
S1131CF08A839B83E0E0F0E012968D919C91139788
S1131D00009719F0FD01DC01F7CF8D919C9111979B
S1131D109D012E5F3F4F820F931F20919B20309196
S1131D209C202817390769F4309729F410929D20D4
S1131D3010929E2002C012821382A0939B20B09323
S1131D409C20DF91CF910895FC0188279927E8947E
S1131D5021912032E9F3293010F02E30C8F32B32D0
S1131D6041F02D3239F4689404C00E94D70E820FDA
S1131D70911D219120532A30C0F31EF49095819532
S1131D809F4F0895FB01DC0101900D920020E1F7C3
S1131D900895FB01DC014150504030F08D910190D9
S1131DA0801919F40020B9F7881B990B08957AE07B
S1131DB0979F902D879F802D910D11240895F8945D
S1051DC0FFCF4F
S1131DC200009F202000010518201F202520242028
S1131DD22B202A202F203220535441545553004D96
S1131DE24F564500455441534B00454A4F42004526
S1131DF2460053460053460A005354415455530A6D
S1131E0200300A0045460A00310A00320A00330A49
S10F1E1200340A00350A0039390A0000C7
S9030000FC
