:100000000C9412010C9438010C9438010C943801B2
:100010000C9438010C9438010C9438010C9438017C
:100020000C9438010C9438010C9438010C9438016C
:100030000C9438010C9438010C9438010C9438015C
:100040000C9438010C9438010C9438010C9438014C
:100050000C94B80B0C9438010C9438010C943801B2
:100060000C9438010C9438010C9438010C9438012C
:100070000C9438010C9438010C9438010C9438011C
:100080000C9438010C9438010C9438010C9438010C
:100090000C9438010C9438010C9438010C943801FC
:1000A0000C9438010C9438010C9438010C943801EC
:1000B0000C9438010C9438010C9438010C943801DC
:1000C0000C9438010C9438010C9438010C943801CC
:1000D0000C9438010C94260C0C9438010C943801C3
:1000E0000C9438010C9438010C9438010C943801AC
:1000F0000C9438010C9438010C9438010C9438019C
:100100000C9438010C9438010C9438010C9438018B
:100110000C9438010C9438010C9438010C9438017B
:100120000C9438010C9438010C9438010C9438016B
:100130000C9438010C9438010C9438010C9438015B
:100140000C9438010C9438010C9438010C94EF0B8A
:100150000C9438010C9438010C9438010C9438013B
:100160000C943C060C94F8050C9438010C9438015E
:100170000C9438010C9438010C9438010C9438011B
:100180000C9438010C9438010C9438010C9438010B
:100190000C9438010C9438010C9438010C943801FB
:1001A0000C9438010C9438010C9438010C943801EB
:1001B0000C94100D0C9438010C9438010C943801F7
:1001C0000C9438010C9438010C945D0C0C9438019B
:1001D0000C9438010C9438010C9438010C943801BB
:1001E0000C9438010C9438010C9438010C943801AB
:1001F0000C9438010C9438010C9438010C94B00321
:100200000C94EF060C9409040C9431070C948506A9
:100210000C940C070C94AD030C9403070C94BE06CD
:100220000C94470711241FBECFEFCDBFDFE3DEBF25
:1002300000E00CBF18BE19BE1ABE1BBE10E2A0E043
:10024000B0E2E0E3F4E200E00BBF02C007900D92E1
:10025000A236B107D9F71BBE20E2A2E6B0E201C088
:100260001D92A03AB207E1F70E946B0E0C94161291
:100270000C9400000F931F93CF93DF93082F162F3A
:10028000D42FC22F84E090E00E94BA10FC010083BA
:100290001183D2838381C0FB80F98383CF01DF91F7
:1002A000CF911F910F9108950F931F93CF93DF93D9
:1002B0008C01EB0184E090E00E94BA10FC01028303
:1002C0001383C083D183DF91CF911F910F91089544
:1002D00087E090E00E94BA10FC0116821482158219
:1002E00010821182128213820895FC01828193810F
:1002F000892B51F462837383DB011D921C928281EE
:1003000093818083918307C080819181DB018D93EC
:100310009C9360837183808191818483958386819E
:100320008F5F86830895FC01A481B58112968D911B
:100330009C9113972D913C91248335830895FC0162
:10034000A481B58112968D919C9113972D913C912A
:100350002483358308950F931F93CF93DF93DC019C
:10036000ED91FC913097D1F0EC01008111818281F7
:1003700093810E945211E881F98110821182E881F3
:10038000F98112821382888199810E945211088317
:1003900019830C831D838E8181508E83DF91CF91D1
:1003A0001F910F910895CF93DF93EC0103C0CE010D
:1003B0000E94AB0188819981892BC9F71882198223
:1003C0001C821D821A821B821E82DF91CF910895AA
:1003D000EF92FF920F931F93CF93DF938C01EB016A
:1003E000DC01ED90FC900E946801B7010E9454016D
:1003F000BC01C8010E9475018A859B850E94DB11A2
:10040000E82E888599850E94DB11F82E8E819F81C8
:100410000E94DB11EC81FD812E2D4F2D682F8081F4
:100420000E943A0160E070E00E945401D801ED9111
:10043000FC91BC01828193810E947501DF91CF9173
:100440001F910F91FF90EF900895BF92CF92DF928E
:10045000EF92FF920F931F93CF93DF937C01EB01F9
:10046000B42EDC01CD90DC90F601028113818091E5
:100470000620882381F00E946801B6010E94540181
:10048000BC01C7010E947501D701ED91FC91028169
:10049000138110920620F801E080F1808A859B8507
:1004A0000E94DB11C82E888599850E94DB11D82E09
:1004B0008E819F810E94DB11EC81FD812C2D4D2DC1
:1004C000682F80810E943A01B7010E945401BC014B
:1004D000C8010E947501BB2019F081E080930620BD
:1004E000DF91CF911F910F91FF90EF90DF90CF9010
:1004F000BF900895E0917820F091792080819181DA
:10050000848395830EC0828193810E94D301E09100
:100510007820F0917920A481B5818D919C9184837C
:100520009583A0917820B09179201496ED91FC915B
:100530001597309741F7CD010E94D3010895CF93CD
:10054000DF9380E190E00E94BA10EC0180E190E03E
:100550000E94BA1088839983FC01108280E190E0A8
:100560000E94BA108A839B83FC01108280E190E094
:100570000E94BA108C839D83FC01108280E190E080
:100580000E94BA108E839F83FC01108280E190E06C
:100590000E94BA1088879987FC01108280E190E060
:1005A0000E94BA108A879B87FC01108280E190E04C
:1005B0000E94BA108E879F87FC011082CE01DF91C6
:1005C000CF9108950F931F93CF93DF938C01EB018D
:1005D0000E941905BC01888199810E94F9116881E6
:1005E000798142E050E080911520909116200E9480
:1005F0000012892B09F04EC0C8010E941905BC01E8
:100600008A819B810E94F911C8010E941905BC01D1
:100610008C819D810E94F911C8010E941905BC01BD
:100620008E819F810E94F911C8010E941905BC01A9
:10063000888599850E94F911C8010E941905BC019D
:100640008A859B850E94F911C8010E941905BC0189
:100650008C859D850E94F911C8010E941905BC0175
:100660008E859F850E94F9116E857F8542E050E05E
:1006700080911320909114200E940012892B29F45C
:10068000C8010E944F0581E009C0C8010E944F05C2
:1006900080E004C0C8010E944F0580E0DF91CF9147
:1006A0001F910F910895CF93DF93FC01C281D381F5
:1006B00043E050E0BE0180911120909112200E94F1
:1006C0000012892B71F143E050E0BE0180910F20B0
:1006D000909110200E940012892B29F143E050E0F4
:1006E000BE0180910D2090910E200E940012892B56
:1006F000E1F043E050E0BE0180910B2090910C208E
:100700000E940012892B99F043E050E0BE018091D5
:10071000092090910A200E940012892B51F482E056
:1007200009C086E007C085E005C084E003C083E01F
:1007300001C081E0DF91CF910895FC018081813378
:1007400031F0823331F0833331F483E0089581E076
:10075000089582E0089583E608950E94B6050895FD
:10076000CF93DF93EC0188E390E20E94B6058FEB14
:100770009AED0197F1F700C000008CE390E20E942F
:10078000B6059FEF28EA81E0915020408040E1F7D4
:1007900000C00000CE010E94B6058FEB9AED0197D4
:1007A000F1F700C0000084E490E20E94B6058FEBF0
:1007B0009AED0197F1F700C0000084E490E20E94F6
:1007C000B6058FEB9AED0197F1F700C0000084E4C5
:1007D00090E20E94B6058FEB9AED0197F1F700C009
:1007E000000084E490E20E94B6058FEB9AED019739
:1007F000F1F700C0000087E490E20E94B6058FEB9D
:100800009AED0197F1F700C0000081E0DF91CF91F0
:100810000895E0916620F0916720858980FF80C06F
:100820006091622070916320CF010E94E2028823D0
:1008300009F472C080916220909163200E9453035A
:100840008330E1F128F4813061F0823041F1089584
:10085000853009F453C008F441C0863009F455C00E
:100860000895E0916220F0916320848195810E9437
:100870009D03823051F0833069F0813009F050C01F
:100880008BE490E20E94B00308958EE490E20E940F
:10089000B003089581E590E20E94B003089560914D
:1008A00062207091632080917820909179200E943D
:1008B000E8018BE490E20E94B00308956091622009
:1008C0007091632040E080917820909179200E947F
:1008D00025028BE490E20E94B003089560916220AB
:1008E0007091632041E080917820909179200E945E
:1008F00025028BE490E20E94B003089584E590E223
:100900000E94B0030E94CB0C089587E590E20E94FC
:10091000B0030E94D80C08958AE590E20E94B003CB
:100920000895CF93DF9386E090E00E94BA10EC0127
:1009300060E180916620909167200E94C5048093B9
:1009400066209093672022E043E060E676E080EA4C
:1009500099E00E946F0580916220909163200E942F
:100960009F02809362209093632089E094E08C83BF
:100970009D838DEA93E08883998380EB93E08A835B
:100980009B83CE01DF91CF910895EF92FF920F9359
:100990001F93CF93DF93062F86E190E00E94BA1059
:1009A0007C0110E00FC0C12FD0E0802F90E00E94AA
:1009B000BA10CC0FDD1FCE0DDF1D88839983FC019B
:1009C00010821F5F193078F3802F90E00E94BA10D8
:1009D000F701828B938BFC011082F701148A8589C1
:1009E0008E7F8260858BC701DF91CF911F910F9120
:1009F000FF90EF900895CF93DF93EC01EC89E930FD
:100A000060F481E08E0F8C8BF0E0EE0FFF1FEC0F97
:100A1000FD1F808191810E94F9118D898D7F8D8BC1
:100A20008C89883019F48D8981608D8BDF91CF910D
:100A300008951F93CF93DF93EC01688179818A89B0
:100A40009B890E94F91110E014C0812F90E0FC01F5
:100A50003196EE0FFF1FEC0FFD1F60817181880F33
:100A6000991FFE01E80FF91F808191810E94F91101
:100A70001F5F8C89181748F3882311F081508C8BE5
:100A80008D898E7F8D8B8C89811103C08D898260C9
:100A90008D8B8A899B89DF91CF911F910895DC010D
:100AA00090E00BC0E92FF0E0EE0FFF1FEA0FFB1FF5
:100AB0000190F081E02D10829F5F993098F352965B
:100AC000ED91FC915397108254961C925497559631
:100AD0008C9155978E7F826055968C930895FB017B
:100AE00080936A2090936B2081E090E0BC0102C06B
:100AF000660F771F4A95E2F76583618302C0880F0E
:100B0000991F2A95E2F78283E0916A20F0916B2089
:100B10008CE0868380E4878383E0858380E283831F
:100B2000A0EAB0E012968C911297826012968C9394
:100B300084818861848380E006C0E82FF0E0E45877
:100B4000FF4D10828F5F8031C0F380E190E00E9402
:100B5000BA1080938C2090938D2080E190E00E94C9
:100B6000BA1080937A2090937B200895BC018091E5
:100B70007A2090917B200E94F911E0916A20F091F7
:100B80006B20838182608383089590EE980F9F3558
:100B900050F4E091692091E09E0F90936920F0E07D
:100BA000E458FF4D80838D3031F0882321F080910F
:100BB00069208D30D0F0A0916920E1E0EA0FB0E02B
:100BC000A458BF4D8AE08C9381E08E0FF0E0E4588A
:100BD000FF4D9DE09083E82FF0E0E458FF4D108238
:100BE000109269208CE790E2089580E090E00895EB
:100BF0001F920F920FB60F92112408B60F9218BED3
:100C00000BB60F921BBE8F939F93EF93FF93909120
:100C10006820E0917A20F0917B20E90FF11D80811E
:100C2000882331F0803298F48A3089F08D3079F061
:100C3000E0916A20F0916B201082E0916A20F0919F
:100C40006B2083818D7F83831092682008C0E091A0
:100C50006A20F0916B209F5F909368208083FF91C2
:100C6000EF919F918F910F900BBE0F9008BE0F9048
:100C70000FBE0F901F9018951F920F920FB60F92F4
:100C8000112408B60F9218BE09B60F9219BE0BB602
:100C90000F921BBE2F933F934F935F936F937F935E
:100CA0008F939F93AF93BF93EF93FF93E0916A204D
:100CB000F0916B2080810E94C50580938C209093D9
:100CC0008D20009759F0BC0180916620909167209B
:100CD0000E94FB0410928C2010928D20FF91EF91C6
:100CE000BF91AF919F918F917F916F915F914F9144
:100CF0003F912F910F900BBE0F9009BE0F9008BE31
:100D00000F900FBE0F901F901895CF92DF92EF9229
:100D1000FF921F93CF93DF93182FEB0189899A8954
:100D20002B89289FB001299F700D112480E090E04D
:100D30000E94BF0F2C893D894E895F890E944D100A
:100D400020E030E044EB53E40E94170F6B017C017C
:100D5000612F110F770B880B990B0E94C10FA70110
:100D600096010E944D100E94890FCB01DF91CF9117
:100D70001F91FF90EF90DF90CF900895FC01808944
:100D80008160808BA385B48581E090E0058402C0FA
:100D9000880F991F0A94E2F715968C938085882313
:100DA00069F0A385B48581E090E0068402C0880FD5
:100DB000991F0A94E2F715968C930CC0A385B4850D
:100DC00081E090E0068402C0880F991F0A94E2F740
:100DD00016968C930184F285E02D60830895FC01C2
:100DE000A681B7816C93838581608387A085B18557
:100DF00081E090E0028402C0880F991F0A94E2F714
:100E000011968C930895FC0180898E7F808B0184DC
:100E1000F285E02D10820895FC0183858E7F838703
:100E2000A085B18581E090E0028402C0880F991FFF
:100E30000A94E2F712968C93A0919820B091992091
:100E40001B968C9180FD0CC0A0919620B0919720AC
:100E50001B968C9180FD04C00680F781E02D1082E6
:100E60000895682F70E080E090E00E94C10F2DE3AC
:100E70003AE047E951E40E944D1020E030EC4FE0A9
:100E800055E40E94AB0E0E94900FCB010895DC0147
:100E90001B96ED91FC911C9721E030E0A9011D9675
:100EA0000C9002C0440F551F0A94E2F74683089540
:100EB0008F929F92AF92BF92CF92DF92EF92FF926A
:100EC0000F93CF93DF93EB015A01490181E290E048
:100ED0000E94BA10FC011282138285E590E08083A3
:100EE00091831482158216821782108686E0858788
:100EF00085E0868784E0878780898E7F808BC187A5
:100F0000D287A386B486818A928A038BC48AD58AC3
:100F1000E68AF78A86E9808F80E2D50111968C9364
:100F2000119780E411968C93119780E111968C9320
:100F3000188291E099838981806189839E838EEBF9
:100F400096E0818F928F83E097E0838F948F87E480
:100F500097E0858F968F85E896E0878F90A3A0EA2B
:100F6000B0E012968C911297816012968C93CF010B
:100F7000DF91CF910F91FF90EF90DF90CF90BF90D6
:100F8000AF909F908F900895EF92FF921F93CF9311
:100F9000DF93EB017A01122F82E190E00E94BA10F8
:100FA000FC01E086F186C683D78383858E7F8387A5
:100FB0008AE590E0828393831482158210821182E5
:100FC0001287212F30E081E090E0AC0102C0440F95
:100FD000551F1A95E2F7D70112964C934981456047
:100FE0004983A98167E070E0621B730BAC0102C00A
:100FF000440F551F6A95E2F74A2B49834F812F5FB3
:101000003F4F02C0880F991F2A95E2F7842B8F83E8
:1010100080E49CE98EA39FA38FEE96E0848795875A
:101020008CE097E08687978781E397E0808B918BB0
:10103000A0EAB0E012968C911297826012968C937F
:10104000CF01DF91CF911F91FF90EF900895CF9244
:10105000DF92EF92FF921F93CF93DF93EC01162F55
:1010600089899A892B89289FB001299F700D1124A5
:1010700080E090E00E94BF0F2C893D894E895F89F6
:101080000E944D106B017C01612F70E080E090E0C8
:101090000E94C10F20E030E040E752E40E94170FA9
:1010A0009B01AC01C701B6010E944D100984DA858D
:1010B000C02D20E030E040E851E40E944D109B013B
:1010C000AC0160E074E284EF9BE40E94170F20E023
:1010D00030E040E85FE30E94AA0E0E94900F68A7EC
:1010E00079A7DF91CF911F91FF90EF90DF90CF9084
:1010F00008950F931F93CF93DF93EC01042F122FCA
:101100000E942708112349F0EF8DF8A1BE01802F1E
:10111000819519958883998307C0EF8DF8A1BE0149
:10112000802F1995888399831887DF91CF911F911C
:101130000F910895CF93DF93EC01862FE889F98909
:10114000199588839983DF91CF91089584E090E089
:101150000E94BA10FC01108211821282138208953B
:10116000CF92DF92EF92FF920F93CF93DF930F2EE8
:10117000C12CD12CF0E8EF2EFFE3FF2EF02D00E183
:1011800028EC30E040EA56E060E47BE08091922079
:10119000909193200E945807EC01809392209093A5
:1011A0009320EF8DF8A1BC018AE519958C839D836E
:1011B000C0919220D0919320EF8DF8A1BE0186EAD4
:1011C00019958E839F8328EC30E040E856E060E478
:1011D0007AE080919420909195200E945807EC012C
:1011E0008093942090939520EF8DF8A1BC018AE51F
:1011F00019958C839D83C0919420D0919520EF8D7B
:10120000F8A1BE0186EA19958E839F8328EC30E011
:1012100040E656E060E479E080919A2090919B202E
:101220000E945807EC0180939A2090939B20EF8DA9
:10123000F8A1BC018AE519958C839D83C0919A2001
:10124000D0919B20EF8DF8A1BE0186EA19958E837F
:101250009F8328EC30E040E456E060E478E0809141
:101260008E2090918F200E945807EC0180938E2051
:1012700090938F20EF8DF8A1BC018AE519958C839E
:101280009D83C0918E20D0918F20EF8DF8A1BE015B
:1012900086EA19958E839F8320E040E456E060E063
:1012A00078E080919620909197200E94C4078093C7
:1012B00096209093972021E040E456E060E078E0AB
:1012C00080919820909199200E94C4078093982043
:1012D000909399200E94A60880939020909391204B
:1012E000DF91CF910F91FF90EF90DF90CF90089515
:1012F000CF93DF93EC0184E090E00E94BA10FC01F0
:1013000010821182C283D383DF91CF9108951F93FE
:10131000CF93DF93EC01162F83E090E00E94BA1088
:10132000FC011083C183D283DF91CF911F91089577
:10133000CF93DF93EC01CB01642F0E9487090E94B9
:1013400078092A813B81232B41F48A839B838883FC
:101350009983FC011082118207C028813981FC0128
:101360002083318388839983DF91CF910895FC0195
:1013700090819334E1F128F4913469F0923409F1C9
:101380000895943509F472C09A3509F446C097342B
:1013900009F07EC058C02381217041816281809113
:1013A0009220909193200E947908609192207091F0
:1013B000932040E080919020909191200E94980984
:1013C00008952381217041816281809194209091C0
:1013D00095200E947908609194207091952040E0BA
:1013E00080919020909191200E94980908952381E6
:1013F00021704181628180919A2090919B200E946E
:10140000790860919A2070919B2040E08091902013
:10141000909191200E949809089523812170418123
:10142000628180918E2090918F200E947908609136
:101430008E2070918F2040E080919020909191209B
:101440000E9498090895618180919620909197203B
:101450000E949A08609196207091972041E08091B7
:101460009020909191200E94980908956181809127
:101470009820909199200E949A08609198207091EC
:10148000992041E080919020909191200E949809AC
:101490000895EF92FF920F931F93CF93DF93DC0198
:1014A00012962D913C911397232BD1F1EC0183E0FF
:1014B00090E00E94BA108C01E881F981A281B38189
:1014C0008C91D8018C93A281B38111968D919C91BE
:1014D0001297D80111968D939C931297E080F1801A
:1014E0000280F381E02D11821282E881F9818281EC
:1014F00093810E945211E881F98112821382E8815E
:10150000F98110821182888199810E945211E882AA
:10151000F982EF2841F41A821B82802F912F05C097
:1015200080E090E002C0802F912FDF91CF911F913A
:101530000F91FF90EF900895CF93DF93E09190206B
:10154000F091912082819381892B71F1F89441E08F
:1015500028C00E94490AEC01888181110AC0898152
:101560009A81DC015996ED91FC915A9764E01995A6
:1015700009C089819A81DC011C96ED91FC911D972F
:1015800064E0199519821A82CE010E94521180914D
:10159000902090919120FC012281338140E0232B07
:1015A000C1F64111F4CF7894DF91CF910895F8946A
:1015B00081E029C08091922090919320DC015D967A
:1015C000ED91FC915E9719958091942090919520D2
:1015D000DC015D96ED91FC915E97199580919A20C2
:1015E00090919B20DC015D96ED91FC915E971995A1
:1015F00080918E2090918F20DC015D96ED91FC9181
:101600005E97199580E08111D5CF78940895F8946C
:1016100081E03DC08091922090919320DC015B9607
:10162000ED91FC915C971995809194209091952073
:10163000DC015B96ED91FC915C97199580919A2065
:1016400090919B20DC015B96ED91FC915C97199544
:1016500080918E2090918F20DC015B96ED91FC9122
:101660005C9719958091962090919720DC011E96A9
:10167000ED91FC911F971995809198209091992058
:10168000DC011E96ED91FC911F97199580E0811168
:10169000C1CF789408950E94070B0E94D70A08953D
:1016A000E0919220F091932080898170E0919420C4
:1016B000F091952020892170E0919A20F0919B2053
:1016C00090899170E0918E20F0918F203089317057
:1016D000820F890F830F0895DC0112968D919C91E2
:1016E000139780937220909373202D913C911197C2
:1016F000209370203093712016964D915C9117972E
:1017000040936E2050936F2014966D917C911597A5
:1017100060936C2070936D201896EC911897EE23CF
:1017200039F0FC0131971296ED93FC93139706C0A4
:10173000FC0131961296ED93FC9313978217930751
:1017400031F0481759071CF48617970734F05B9659
:10175000ED91FC915C97CD0119950E94500B811180
:1017600006C080911720909118200E94940C089533
:101770001F920F920FB60F92112408B60F9218BE47
:1017800009B60F9219BE0BB60F921BBE2F933F9353
:101790004F935F936F937F938F939F93AF93BF9379
:1017A000EF93FF9380918E2090918F200E946C0B7D
:1017B000FF91EF91BF91AF919F918F917F916F9129
:1017C0005F914F913F912F910F900BBE0F9009BEEB
:1017D0000F9008BE0F900FBE0F901F9018951F928C
:1017E0000F920FB60F92112408B60F9218BE09B6C9
:1017F0000F9219BE0BB60F921BBE2F933F934F93C0
:101800005F936F937F938F939F93AF93BF93EF9368
:10181000FF9380919A2090919B200E946C0BFF91E6
:10182000EF91BF91AF919F918F917F916F915F9158
:101830004F913F912F910F900BBE0F9009BE0F90CB
:1018400008BE0F900FBE0F901F9018951F920F9219
:101850000FB60F92112408B60F9218BE09B60F9258
:1018600019BE0BB60F921BBE2F933F934F935F93FE
:101870006F937F938F939F93AF93BF93EF93FF9358
:1018800080919420909195200E946C0BFF91EF9194
:10189000BF91AF919F918F917F916F915F914F9188
:1018A0003F912F910F900BBE0F9009BE0F9008BE75
:1018B0000F900FBE0F901F9018951F920F920FB6AA
:1018C0000F92112408B60F9218BE09B60F9219BED6
:1018D0000BB60F921BBE2F933F934F935F936F9363
:1018E0007F938F939F93AF93BF93EF93FF938091D9
:1018F0009220909193200E946C0BFF91EF91BF91E9
:10190000AF919F918F917F916F915F914F913F9197
:101910002F910F900BBE0F9009BE0F9008BE0F9035
:101920000FBE0F901F90189527E0FC0120830895AB
:10193000FC0110820895CF93DF93EC0182E090E0E8
:101940008EA39FA318A219A2CE010E94980C81E039
:101950008E83E0EAF0E0828181608283DF91CF9123
:101960000895CF93DF93FC0124813581232B79F0F7
:101970000E949301EC0105C0CE010E949F010E94CC
:10198000B7098C819D81892BB9F781E001C080E086
:10199000DF91CF91089580911720909118200E9497
:1019A0009B0C80911720909118200E94940C089510
:1019B00080911720909118200E94980C0E944B0B48
:1019C0000895CF93DF93EB0120917620211103C07E
:1019D0000E94B10C01C080E090917620911102C06C
:1019E000882341F00E949C0A81E0809377208093B5
:1019F000762013C0811111C080917720882349F08F
:101A0000109277200E947A028EE590E2FE011995ED
:101A100004C08AE590E2FE011995DF91CF91089507
:101A20001F920F920FB60F92112408B60F9218BE94
:101A300009B60F9219BE0BB60F921BBE2F933F93A0
:101A40004F935F936F937F938F939F93AF93BF93C6
:101A5000EF93FF93809174209091752081159D479D
:101A600020F480917720811114C01092762080E0BC
:101A70009BE00E94980C60EB73E08091782090913D
:101A800079200E94E10C81E090E080937420909393
:101A90007520809174209091752001968093742018
:101AA00090937520FF91EF91BF91AF919F918F918E
:101AB0007F916F915F914F913F912F910F900BBE4E
:101AC0000F9009BE0F9008BE0F900FBE0F901F9091
:101AD00018951F93CF93DF93EC01142F0E945A0E99
:101AE00060E8CE010E94600E612FCE010E94600E60
:101AF00060E8CE010E94600E612FCE010E94600E50
:101B0000CE010E94660EDF91CF911F9108950F9331
:101B10001F93CF93DF93EC01142F022F0E945A0ED4
:101B200060E8CE010E94600E612FCE010E94600E1F
:101B300060E8CE010E94600E612FCE010E94600E0F
:101B4000602FCE010E94600ECE010E94660EDF91D2
:101B5000CF911F910F910895CF93DF93EC0124E172
:101B60004DE868E70E94870D4FEA68E7CE010E94C2
:101B7000690DDF91CF910895CF93DF93EC0123E0BE
:101B80004AED68E70E94870D48EC68E7CE010E94A5
:101B9000690D22E040E268E7CE010E94870D40EB2C
:101BA00068E7CE010E94690D40E068E7CE010E941F
:101BB000690D40E168E7CE010E94690D40E468E7E5
:101BC000CE010E94690D41EA68E7CE010E94690DCD
:101BD000CE010E94AC0DDF91CF9108951F93CF935A
:101BE000DF93EC01142F0E945A0E60ECCE010E948C
:101BF000600E612FCE010E94600ECE010E94660E23
:101C0000DF91CF911F9108950F931F93CF938C0174
:101C1000C62F405568E70E94690D4C2F4F7068E74A
:101C2000C8010E94690D4C2F42954F70405F68E7D4
:101C3000C8010E94690DCF911F910F910895CF9215
:101C4000DF92FF920F931F93CF93DF938C01F62EB9
:101C5000C12CD12C14C04C2D60E0C8010E94040E90
:101C6000C0E0D0E006C04F2D68E7C8010E94EE0D2D
:101C70002196C038D105B8F38FEFC81AD80A88E08A
:101C8000C816D10440F3DF91CF911F910F91FF90BF
:101C9000DF90CF900895FC0165838281816082830B
:101CA0008181886081838181806C8183848181606E
:101CB00084830895FC016683948195FFFDCF089588
:101CC000FC016783948195FFFDCF0895FC0193810A
:101CD0009360938308950E949D0E63E28091192082
:101CE00090911A200E944B0E8091192090911A20F9
:101CF0000E94BC0D6AEA8091192090911A200E94DE
:101D00001F0E0E94B0080E94680180937820909373
:101D1000792080916420909165200E9491048093A5
:101D20006420909365207894E0916420F091652080
:101D30000480F581E02D1995F7CF82E08093500063
:101D40008091510081FFFCCF88ED84BF81E08093BA
:101D5000400008955058BB27AA270E94C20E0C9439
:101D600013100E94051038F00E940C1020F039F476
:101D70009F3F19F426F40C9402100EF4E095E7FB53
:101D80000C94FC0FE92F0E94241058F3BA17620735
:101D900073078407950720F079F4A6F50C94461094
:101DA0000EF4E0950B2EBA2FA02D0B01B901900176
:101DB0000C01CA01A0011124FF27591B99F0593FBA
:101DC00050F4503E68F11A16F040A22F232F342F02
:101DD0004427585FF3CF469537952795A795F04050
:101DE0005395C9F77EF41F16BA0B620B730B840B65
:101DF000BAF09150A1F0FF0FBB1F661F771F881F1D
:101E0000C2F70EC0BA0F621F731F841F48F4879574
:101E100077956795B795F7959E3F08F0B0CF939566
:101E2000880F08F09927EE0F9795879508950E94DF
:101E30002B0F0C9413100E940C1058F00E940510E8
:101E400040F029F45F3F29F00C94FC0F51110C94E1
:101E500047100C9402100E94241068F39923B1F3E8
:101E6000552391F3951B550BBB27AA2762177307C0
:101E7000840738F09F5F5F4F220F331F441FAA1F54
:101E8000A9F335D00E2E3AF0E0E832D09150504010
:101E9000E695001CCAF72BD0FE2F29D0660F771FBE
:101EA000881FBB1F261737074807AB07B0E809F0A4
:101EB000BB0B802DBF01FF2793585F4F3AF09E3F29
:101EC000510578F00C94FC0F0C9447105F3FE4F33D
:101ED000983ED4F3869577956795B795F7959F5F6C
:101EE000C9F7880F911D9695879597F90895E1E0B8
:101EF000660F771F881FBB1F621773078407BA0717
:101F000020F0621B730B840BBA0BEE1F88F7E09571
:101F100008950E94900F6894B1110C944710089591
:101F20000E942C1088F09F5798F0B92F9927B7512D
:101F3000B0F0E1F0660F771F881F991F1AF0BA956D
:101F4000C9F714C0B13091F00E944610B1E0089575
:101F50000C944610672F782F8827B85F39F0B93F67
:101F6000CCF3869577956795B395D9F73EF4909520
:101F70008095709561957F4F8F4F9F4F0895E8949E
:101F800009C097FB3EF490958095709561957F4FC1
:101F90008F4F9F4F9923A9F0F92F96E9BB2793956F
:101FA000F695879577956795B795F111F8CFFAF47F
:101FB000BB0F11F460FF1BC06F5F7F4F8F4F9F4FB0
:101FC00016C0882311F096E911C0772321F09EE80E
:101FD000872F762F05C0662371F096E8862F70E074
:101FE00060E02AF09A95660F771F881FDAF7880F4E
:101FF0009695879597F9089597F99F6780E870E01F
:1020000060E008959FEF80EC089500240A9416166E
:10201000170618060906089500240A9412161306D6
:10202000140605060895092E0394000C11F4882364
:1020300052F0BB0F40F4BF2B11F460FF04C06F5F80
:102040007F4F8F4F9F4F089557FD9058440F551F56
:1020500059F05F3F71F04795880F97FB991F61F02A
:102060009F3F79F087950895121613061406551FA1
:10207000F2CF4695F1DF08C0161617061806991F0D
:10208000F1CF86957105610508940895E894BB2702
:1020900066277727CB0197F908950E9460100C946A
:1020A00013100E94051038F00E940C1020F09523A8
:1020B00011F00C94FC0F0C94021011240C94471096
:1020C0000E94241070F3959FC1F3950F50E0551FA7
:1020D000629FF001729FBB27F00DB11D639FAA277D
:1020E000F00DB11DAA1F649F6627B00DA11D661FCC
:1020F000829F2227B00DA11D621F739FB00DA11DED
:10210000621F839FA00D611D221F749F3327A00DA6
:10211000611D231F849F600D211D822F762F6A2F42
:1021200011249F5750409AF0F1F088234AF0EE0FA7
:10213000FF1FBB1F661F771F881F91505040A9F7D4
:102140009E3F510580F00C94FC0F0C9447105F3FAC
:10215000E4F3983ED4F3869577956795B795F79510
:10216000E7959F5FC1F7FE2B880F911D9695879588
:1021700097F908950F931F93CF93DF9382309105C2
:1021800010F482E090E0E0919E20F0919F2020E00A
:1021900030E0A0E0B0E0309719F140815181028138
:1021A000138148175907C8F08417950769F41097E9
:1021B00031F012960C93129713961C9327C000933C
:1021C0009E2010939F2022C02115310519F042173F
:1021D000530718F49A01BD01EF01DF01F801DBCFCD
:1021E00021153105F9F0281B390B2430310580F415
:1021F0008A819B816115710521F0FB0182839383A4
:1022000004C080939E2090939F20FE01329644C08C
:10221000FE01E20FF31F819391932250310928832D
:1022200039833AC020919C2030919D20232B41F48A
:10223000209102203091032020939C2030939D20F8
:1022400020910020309101202115310541F42DB756
:102250003EB74091042050910520241B350BE0919E
:102260009C20F0919D20E217F307A0F42E1B3F0B5A
:102270002817390778F0AC014E5F5F4F24173507F8
:1022800048F04E0F5F1F40939C2050939D208193F8
:10229000919302C0E0E0F0E0CF01DF91CF911F9178
:1022A0000F910895CF93DF93009709F481C0FC014B
:1022B000329712821382A0919E20B0919F20109796
:1022C00081F420813181820F931F20919C203091D5
:1022D0009D202817390751F5E0939C20F0939D200D
:1022E00067C0ED0120E030E0CE17DF0740F44A81FF
:1022F0005B819E0141155105F1F0EA01F5CFC283E2
:10230000D38340815181840F951FC817D90759F491
:1023100088819981840F951F0296808391838A8199
:102320009B81828393832115310529F4E0939E20BC
:10233000F0939F203DC0E901EA83FB8349915991C5
:10234000C40FD51FEC17FD0761F480819181840FC4
:10235000951F0296E90188839983828193818A83FC
:102360009B83E0E0F0E012968D919C91139700978B
:1023700019F0FD01DC01F7CF8D919C9111979D0122
:102380002E5F3F4F820F931F20919C2030919D2004
:102390002817390769F4309729F410929E2010927B
:1023A0009F2002C012821382A0939C20B0939D2094
:1023B000DF91CF910895FC0188279927E894219116
:1023C0002032E9F3293010F02E30C8F32B3241F0DF
:1023D0002D3239F4689404C00E940E12820F911DB0
:1023E000219120532A30C0F31EF4909581959F4F80
:1023F0000895FB01DC0101900D920020E1F70895A2
:10240000FB01DC014150504030F08D91019080196A
:1024100019F40020B9F7881B990B08957AE0979F6B
:10242000902D879F802D910D11240895F894FFCF52
:102430000000A0202000011B202220282027202E81
:10244000202D2032203520000B8004535441545558
:1024500053004D4F564500455441534B00454A4F9C
:10246000420045460053460053460A005354415427
:1024700055530A00300A0045460A00310A00320A64
:1024800000330A00340A00350A0039390A00360AD6
:0224900000004A
:00000001FF
